{
  "contractName": "PolyCardTokens",
  "abi": [
    {
      "inputs": [],
      "stateMutability": "nonpayable",
      "type": "constructor"
    },
    {
      "anonymous": false,
      "inputs": [
        {
          "indexed": true,
          "internalType": "address",
          "name": "account",
          "type": "address"
        },
        {
          "indexed": true,
          "internalType": "address",
          "name": "operator",
          "type": "address"
        },
        {
          "indexed": false,
          "internalType": "bool",
          "name": "approved",
          "type": "bool"
        }
      ],
      "name": "ApprovalForAll",
      "type": "event"
    },
    {
      "anonymous": false,
      "inputs": [
        {
          "indexed": true,
          "internalType": "address",
          "name": "previousOwner",
          "type": "address"
        },
        {
          "indexed": true,
          "internalType": "address",
          "name": "newOwner",
          "type": "address"
        }
      ],
      "name": "OwnershipTransferred",
      "type": "event"
    },
    {
      "anonymous": false,
      "inputs": [
        {
          "indexed": false,
          "internalType": "address",
          "name": "buyer",
          "type": "address"
        },
        {
          "indexed": false,
          "internalType": "uint256",
          "name": "tokenId",
          "type": "uint256"
        },
        {
          "indexed": false,
          "internalType": "uint256",
          "name": "amount",
          "type": "uint256"
        }
      ],
      "name": "Sold",
      "type": "event"
    },
    {
      "anonymous": false,
      "inputs": [
        {
          "indexed": true,
          "internalType": "address",
          "name": "operator",
          "type": "address"
        },
        {
          "indexed": true,
          "internalType": "address",
          "name": "from",
          "type": "address"
        },
        {
          "indexed": true,
          "internalType": "address",
          "name": "to",
          "type": "address"
        },
        {
          "indexed": false,
          "internalType": "uint256[]",
          "name": "ids",
          "type": "uint256[]"
        },
        {
          "indexed": false,
          "internalType": "uint256[]",
          "name": "values",
          "type": "uint256[]"
        }
      ],
      "name": "TransferBatch",
      "type": "event"
    },
    {
      "anonymous": false,
      "inputs": [
        {
          "indexed": true,
          "internalType": "address",
          "name": "operator",
          "type": "address"
        },
        {
          "indexed": true,
          "internalType": "address",
          "name": "from",
          "type": "address"
        },
        {
          "indexed": true,
          "internalType": "address",
          "name": "to",
          "type": "address"
        },
        {
          "indexed": false,
          "internalType": "uint256",
          "name": "id",
          "type": "uint256"
        },
        {
          "indexed": false,
          "internalType": "uint256",
          "name": "value",
          "type": "uint256"
        }
      ],
      "name": "TransferSingle",
      "type": "event"
    },
    {
      "anonymous": false,
      "inputs": [
        {
          "indexed": false,
          "internalType": "string",
          "name": "value",
          "type": "string"
        },
        {
          "indexed": true,
          "internalType": "uint256",
          "name": "id",
          "type": "uint256"
        }
      ],
      "name": "URI",
      "type": "event"
    },
    {
      "inputs": [],
      "name": "ARCHAEOLOGIST",
      "outputs": [
        {
          "internalType": "uint256",
          "name": "",
          "type": "uint256"
        }
      ],
      "stateMutability": "view",
      "type": "function",
      "constant": true
    },
    {
      "inputs": [],
      "name": "GEM",
      "outputs": [
        {
          "internalType": "uint256",
          "name": "",
          "type": "uint256"
        }
      ],
      "stateMutability": "view",
      "type": "function",
      "constant": true
    },
    {
      "inputs": [],
      "name": "SWORDSMAN",
      "outputs": [
        {
          "internalType": "uint256",
          "name": "",
          "type": "uint256"
        }
      ],
      "stateMutability": "view",
      "type": "function",
      "constant": true
    },
    {
      "inputs": [
        {
          "internalType": "address",
          "name": "",
          "type": "address"
        }
      ],
      "name": "admins",
      "outputs": [
        {
          "internalType": "bool",
          "name": "",
          "type": "bool"
        }
      ],
      "stateMutability": "view",
      "type": "function",
      "constant": true
    },
    {
      "inputs": [
        {
          "internalType": "address",
          "name": "account",
          "type": "address"
        },
        {
          "internalType": "uint256",
          "name": "id",
          "type": "uint256"
        }
      ],
      "name": "balanceOf",
      "outputs": [
        {
          "internalType": "uint256",
          "name": "",
          "type": "uint256"
        }
      ],
      "stateMutability": "view",
      "type": "function",
      "constant": true
    },
    {
      "inputs": [
        {
          "internalType": "address[]",
          "name": "accounts",
          "type": "address[]"
        },
        {
          "internalType": "uint256[]",
          "name": "ids",
          "type": "uint256[]"
        }
      ],
      "name": "balanceOfBatch",
      "outputs": [
        {
          "internalType": "uint256[]",
          "name": "",
          "type": "uint256[]"
        }
      ],
      "stateMutability": "view",
      "type": "function",
      "constant": true
    },
    {
      "inputs": [
        {
          "internalType": "uint256",
          "name": "id",
          "type": "uint256"
        }
      ],
      "name": "exists",
      "outputs": [
        {
          "internalType": "bool",
          "name": "",
          "type": "bool"
        }
      ],
      "stateMutability": "view",
      "type": "function",
      "constant": true
    },
    {
      "inputs": [],
      "name": "gemPrice",
      "outputs": [
        {
          "internalType": "uint256",
          "name": "",
          "type": "uint256"
        }
      ],
      "stateMutability": "view",
      "type": "function",
      "constant": true
    },
    {
      "inputs": [],
      "name": "owner",
      "outputs": [
        {
          "internalType": "address",
          "name": "",
          "type": "address"
        }
      ],
      "stateMutability": "view",
      "type": "function",
      "constant": true
    },
    {
      "inputs": [],
      "name": "renounceOwnership",
      "outputs": [],
      "stateMutability": "nonpayable",
      "type": "function"
    },
    {
      "inputs": [
        {
          "internalType": "address",
          "name": "from",
          "type": "address"
        },
        {
          "internalType": "address",
          "name": "to",
          "type": "address"
        },
        {
          "internalType": "uint256[]",
          "name": "ids",
          "type": "uint256[]"
        },
        {
          "internalType": "uint256[]",
          "name": "amounts",
          "type": "uint256[]"
        },
        {
          "internalType": "bytes",
          "name": "data",
          "type": "bytes"
        }
      ],
      "name": "safeBatchTransferFrom",
      "outputs": [],
      "stateMutability": "nonpayable",
      "type": "function"
    },
    {
      "inputs": [
        {
          "internalType": "address",
          "name": "from",
          "type": "address"
        },
        {
          "internalType": "address",
          "name": "to",
          "type": "address"
        },
        {
          "internalType": "uint256",
          "name": "id",
          "type": "uint256"
        },
        {
          "internalType": "uint256",
          "name": "amount",
          "type": "uint256"
        },
        {
          "internalType": "bytes",
          "name": "data",
          "type": "bytes"
        }
      ],
      "name": "safeTransferFrom",
      "outputs": [],
      "stateMutability": "nonpayable",
      "type": "function"
    },
    {
      "inputs": [
        {
          "internalType": "address",
          "name": "operator",
          "type": "address"
        },
        {
          "internalType": "bool",
          "name": "approved",
          "type": "bool"
        }
      ],
      "name": "setApprovalForAll",
      "outputs": [],
      "stateMutability": "nonpayable",
      "type": "function"
    },
    {
      "inputs": [
        {
          "internalType": "uint256",
          "name": "",
          "type": "uint256"
        }
      ],
      "name": "tokenGemPrices",
      "outputs": [
        {
          "internalType": "uint256",
          "name": "",
          "type": "uint256"
        }
      ],
      "stateMutability": "view",
      "type": "function",
      "constant": true
    },
    {
      "inputs": [
        {
          "internalType": "address",
          "name": "newOwner",
          "type": "address"
        }
      ],
      "name": "transferOwnership",
      "outputs": [],
      "stateMutability": "nonpayable",
      "type": "function"
    },
    {
      "inputs": [
        {
          "internalType": "uint256",
          "name": "",
          "type": "uint256"
        }
      ],
      "name": "uri",
      "outputs": [
        {
          "internalType": "string",
          "name": "",
          "type": "string"
        }
      ],
      "stateMutability": "view",
      "type": "function",
      "constant": true
    },
    {
      "inputs": [
        {
          "internalType": "uint256",
          "name": "gems",
          "type": "uint256"
        }
      ],
      "name": "buyGems",
      "outputs": [],
      "stateMutability": "payable",
      "type": "function",
      "payable": true
    },
    {
      "inputs": [
        {
          "internalType": "uint256",
          "name": "id",
          "type": "uint256"
        }
      ],
      "name": "buyToken",
      "outputs": [],
      "stateMutability": "nonpayable",
      "type": "function"
    },
    {
      "inputs": [],
      "name": "withdraw",
      "outputs": [],
      "stateMutability": "nonpayable",
      "type": "function"
    },
    {
      "inputs": [
        {
          "internalType": "uint256[]",
          "name": "ids",
          "type": "uint256[]"
        },
        {
          "internalType": "uint256[]",
          "name": "amounts",
          "type": "uint256[]"
        }
      ],
      "name": "increaseSupplyBatch",
      "outputs": [],
      "stateMutability": "nonpayable",
      "type": "function"
    },
    {
      "inputs": [
        {
          "internalType": "address",
          "name": "account",
          "type": "address"
        },
        {
          "internalType": "bool",
          "name": "approved",
          "type": "bool"
        }
      ],
      "name": "setAdmin",
      "outputs": [],
      "stateMutability": "nonpayable",
      "type": "function"
    },
    {
      "inputs": [
        {
          "internalType": "uint256",
          "name": "price",
          "type": "uint256"
        }
      ],
      "name": "setGemPrice",
      "outputs": [],
      "stateMutability": "nonpayable",
      "type": "function"
    },
    {
      "inputs": [
        {
          "internalType": "uint256[]",
          "name": "ids",
          "type": "uint256[]"
        },
        {
          "internalType": "uint256[]",
          "name": "prices",
          "type": "uint256[]"
        }
      ],
      "name": "setTokenGemPriceBatch",
      "outputs": [],
      "stateMutability": "nonpayable",
      "type": "function"
    },
    {
      "inputs": [
        {
          "internalType": "address",
          "name": "account",
          "type": "address"
        },
        {
          "internalType": "address",
          "name": "operator",
          "type": "address"
        }
      ],
      "name": "isApprovedForAll",
      "outputs": [
        {
          "internalType": "bool",
          "name": "",
          "type": "bool"
        }
      ],
      "stateMutability": "view",
      "type": "function",
      "constant": true
    },
    {
      "inputs": [
        {
          "internalType": "uint256",
          "name": "id",
          "type": "uint256"
        }
      ],
      "name": "totalSupply",
      "outputs": [
        {
          "internalType": "uint256",
          "name": "",
          "type": "uint256"
        }
      ],
      "stateMutability": "view",
      "type": "function",
      "constant": true
    },
    {
      "inputs": [
        {
          "internalType": "bytes4",
          "name": "interfaceId",
          "type": "bytes4"
        }
      ],
      "name": "supportsInterface",
      "outputs": [
        {
          "internalType": "bool",
          "name": "",
          "type": "bool"
        }
      ],
      "stateMutability": "view",
      "type": "function",
      "constant": true
    },
    {
      "inputs": [
        {
          "internalType": "address",
          "name": "",
          "type": "address"
        },
        {
          "internalType": "address",
          "name": "",
          "type": "address"
        },
        {
          "internalType": "uint256",
          "name": "",
          "type": "uint256"
        },
        {
          "internalType": "uint256",
          "name": "",
          "type": "uint256"
        },
        {
          "internalType": "bytes",
          "name": "",
          "type": "bytes"
        }
      ],
      "name": "onERC1155Received",
      "outputs": [
        {
          "internalType": "bytes4",
          "name": "",
          "type": "bytes4"
        }
      ],
      "stateMutability": "pure",
      "type": "function",
      "constant": true
    },
    {
      "inputs": [
        {
          "internalType": "address",
          "name": "",
          "type": "address"
        },
        {
          "internalType": "address",
          "name": "",
          "type": "address"
        },
        {
          "internalType": "uint256[]",
          "name": "",
          "type": "uint256[]"
        },
        {
          "internalType": "uint256[]",
          "name": "",
          "type": "uint256[]"
        },
        {
          "internalType": "bytes",
          "name": "",
          "type": "bytes"
        }
      ],
      "name": "onERC1155BatchReceived",
      "outputs": [
        {
          "internalType": "bytes4",
          "name": "",
          "type": "bytes4"
        }
      ],
      "stateMutability": "pure",
      "type": "function",
      "constant": true
    }
  ],
  "bytecode": "0x60806040523480156200001157600080fd5b506040518060600160405280603581526020016200533e603591396200003d816200029560201b60201c565b506200005e62000052620002b160201b60201c565b620002b960201b60201c565b6000600367ffffffffffffffff8111156200007e576200007d62000b91565b5b604051908082528060200260200182016040528015620000ad5781602001602082028036833780820191505090505b5090506000600367ffffffffffffffff811115620000d057620000cf62000b91565b5b604051908082528060200260200182016040528015620000ff5781602001602082028036833780820191505090505b5090506000826000815181106200011b576200011a62000bc0565b5b602002602001018181525050670de0b6b3a76400008160008151811062000147576200014662000bc0565b5b6020026020010181815250506002826001815181106200016c576200016b62000bc0565b5b6020026020010181815250506103e88160018151811062000192576200019162000bc0565b5b602002602001018181525050600382600281518110620001b757620001b662000bc0565b5b6020026020010181815250506103e881600281518110620001dd57620001dc62000bc0565b5b602002602001018181525050620001fb82826200037f60201b60201c565b600e600a6200020b919062000d89565b600562000219919062000dda565b60058190555060c860066000600281526020019081526020016000208190555060c86006600060038152602001908152602001600020819055506200028d736e12a2f11de0b963ed63a1c70b2ffd4b88df536560006103e8604051806020016040528060008152506200045560201b60201c565b5050620015c8565b8060029080519060200190620002ad92919062000ae1565b5050565b600033905090565b6000600460009054906101000a900473ffffffffffffffffffffffffffffffffffffffff16905081600460006101000a81548173ffffffffffffffffffffffffffffffffffffffff021916908373ffffffffffffffffffffffffffffffffffffffff1602179055508173ffffffffffffffffffffffffffffffffffffffff168173ffffffffffffffffffffffffffffffffffffffff167f8be0079c531659141344cd1fd0a4f28419497f9722a3daafe3b4186f6b6457e060405160405180910390a35050565b8051825114620003c6576040517f08c379a0000000000000000000000000000000000000000000000000000000008152600401620003bd9062000e9c565b60405180910390fd5b60005b825181101562000450576000838281518110620003eb57620003ea62000bc0565b5b6020026020010151905060008383815181106200040d576200040c62000bc0565b5b602002602001015190506200043a308383604051806020016040528060008152506200045560201b60201c565b505080620004489062000ebe565b9050620003c9565b505050565b600073ffffffffffffffffffffffffffffffffffffffff168473ffffffffffffffffffffffffffffffffffffffff1603620004c7576040517f08c379a0000000000000000000000000000000000000000000000000000000008152600401620004be9062000f81565b60405180910390fd5b6000620004d9620002b160201b60201c565b90506000620004ee856200063c60201b60201c565b9050600062000503856200063c60201b60201c565b90506200051c83600089858589620006bd60201b60201c565b8460008088815260200190815260200160002060008973ffffffffffffffffffffffffffffffffffffffff1673ffffffffffffffffffffffffffffffffffffffff16815260200190815260200160002060008282546200057d919062000fa3565b925050819055508673ffffffffffffffffffffffffffffffffffffffff16600073ffffffffffffffffffffffffffffffffffffffff168473ffffffffffffffffffffffffffffffffffffffff167fc3d58168c5ae7397731d063d5bbf3d657854427343f4c083240f7aacaa2d0f628989604051620005fd92919062001011565b60405180910390a46200061c83600089858589620008b560201b60201c565b6200063383600089898989620008bd60201b60201c565b50505050505050565b60606000600167ffffffffffffffff8111156200065e576200065d62000b91565b5b6040519080825280602002602001820160405280156200068d5781602001602082028036833780820191505090505b5090508281600081518110620006a857620006a762000bc0565b5b60200260200101818152505080915050919050565b620006d886868686868662000ab660201b620010701760201c565b600073ffffffffffffffffffffffffffffffffffffffff168573ffffffffffffffffffffffffffffffffffffffff1603620007965760005b8351811015620007945782818151811062000730576200072f62000bc0565b5b60200260200101516003600086848151811062000752576200075162000bc0565b5b60200260200101518152602001908152602001600020600082825462000779919062000fa3565b92505081905550806200078c9062000ebe565b905062000710565b505b600073ffffffffffffffffffffffffffffffffffffffff168473ffffffffffffffffffffffffffffffffffffffff1603620008ad5760005b8351811015620008ab576000848281518110620007f057620007ef62000bc0565b5b60200260200101519050600084838151811062000812576200081162000bc0565b5b60200260200101519050600060036000848152602001908152602001600020549050818110156200087a576040517f08c379a00000000000000000000000000000000000000000000000000000000081526004016200087190620010b4565b60405180910390fd5b818103600360008581526020019081526020016000208190555050505080620008a39062000ebe565b9050620007ce565b505b505050505050565b505050505050565b620008e98473ffffffffffffffffffffffffffffffffffffffff1662000abe60201b620010781760201c565b1562000aae578373ffffffffffffffffffffffffffffffffffffffff1663f23a6e6187878686866040518663ffffffff1660e01b815260040162000932959493929190620011bf565b6020604051808303816000875af19250505080156200097157506040513d601f19601f820116820180604052508101906200096e91906200128f565b60015b62000a225762000980620012ce565b806308c379a003620009e357506200099762001329565b80620009a45750620009e5565b806040517f08c379a0000000000000000000000000000000000000000000000000000000008152600401620009da919062001410565b60405180910390fd5b505b6040517f08c379a000000000000000000000000000000000000000000000000000000000815260040162000a1990620014aa565b60405180910390fd5b63f23a6e6160e01b7bffffffffffffffffffffffffffffffffffffffffffffffffffffffff1916817bffffffffffffffffffffffffffffffffffffffffffffffffffffffff19161462000aac576040517f08c379a000000000000000000000000000000000000000000000000000000000815260040162000aa39062001542565b60405180910390fd5b505b505050505050565b505050505050565b6000808273ffffffffffffffffffffffffffffffffffffffff163b119050919050565b82805462000aef9062001593565b90600052602060002090601f01602090048101928262000b13576000855562000b5f565b82601f1062000b2e57805160ff191683800117855562000b5f565b8280016001018555821562000b5f579182015b8281111562000b5e57825182559160200191906001019062000b41565b5b50905062000b6e919062000b72565b5090565b5b8082111562000b8d57600081600090555060010162000b73565b5090565b7f4e487b7100000000000000000000000000000000000000000000000000000000600052604160045260246000fd5b7f4e487b7100000000000000000000000000000000000000000000000000000000600052603260045260246000fd5b7f4e487b7100000000000000000000000000000000000000000000000000000000600052601160045260246000fd5b60008160011c9050919050565b6000808291508390505b600185111562000c7d5780860481111562000c555762000c5462000bef565b5b600185161562000c655780820291505b808102905062000c758562000c1e565b945062000c35565b94509492505050565b60008262000c98576001905062000d6b565b8162000ca8576000905062000d6b565b816001811462000cc1576002811462000ccc5762000d02565b600191505062000d6b565b60ff84111562000ce15762000ce062000bef565b5b8360020a91508482111562000cfb5762000cfa62000bef565b5b5062000d6b565b5060208310610133831016604e8410600b841016171562000d3c5782820a90508381111562000d365762000d3562000bef565b5b62000d6b565b62000d4b848484600162000c2b565b9250905081840481111562000d655762000d6462000bef565b5b81810290505b9392505050565b6000819050919050565b600060ff82169050919050565b600062000d968262000d72565b915062000da38362000d7c565b925062000dd27fffffffffffffffffffffffffffffffffffffffffffffffffffffffffffffffff848462000c86565b905092915050565b600062000de78262000d72565b915062000df48362000d72565b9250817fffffffffffffffffffffffffffffffffffffffffffffffffffffffffffffffff048311821515161562000e305762000e2f62000bef565b5b828202905092915050565b600082825260208201905092915050565b7f69647320616e6420616d6f756e7473206c656e677468206d69736d6174636800600082015250565b600062000e84601f8362000e3b565b915062000e918262000e4c565b602082019050919050565b6000602082019050818103600083015262000eb78162000e75565b9050919050565b600062000ecb8262000d72565b91507fffffffffffffffffffffffffffffffffffffffffffffffffffffffffffffffff820362000f005762000eff62000bef565b5b600182019050919050565b7f455243313135353a206d696e7420746f20746865207a65726f2061646472657360008201527f7300000000000000000000000000000000000000000000000000000000000000602082015250565b600062000f6960218362000e3b565b915062000f768262000f0b565b604082019050919050565b6000602082019050818103600083015262000f9c8162000f5a565b9050919050565b600062000fb08262000d72565b915062000fbd8362000d72565b9250827fffffffffffffffffffffffffffffffffffffffffffffffffffffffffffffffff0382111562000ff55762000ff462000bef565b5b828201905092915050565b6200100b8162000d72565b82525050565b600060408201905062001028600083018562001000565b62001037602083018462001000565b9392505050565b7f455243313135353a206275726e20616d6f756e74206578636565647320746f7460008201527f616c537570706c79000000000000000000000000000000000000000000000000602082015250565b60006200109c60288362000e3b565b9150620010a9826200103e565b604082019050919050565b60006020820190508181036000830152620010cf816200108d565b9050919050565b600073ffffffffffffffffffffffffffffffffffffffff82169050919050565b60006200110382620010d6565b9050919050565b6200111581620010f6565b82525050565b600081519050919050565b600082825260208201905092915050565b60005b83811015620011575780820151818401526020810190506200113a565b8381111562001167576000848401525b50505050565b6000601f19601f8301169050919050565b60006200118b826200111b565b62001197818562001126565b9350620011a981856020860162001137565b620011b4816200116d565b840191505092915050565b600060a082019050620011d660008301886200110a565b620011e560208301876200110a565b620011f4604083018662001000565b62001203606083018562001000565b81810360808301526200121781846200117e565b90509695505050505050565b6000604051905090565b600080fd5b60007fffffffff0000000000000000000000000000000000000000000000000000000082169050919050565b620012698162001232565b81146200127557600080fd5b50565b60008151905062001289816200125e565b92915050565b600060208284031215620012a857620012a76200122d565b5b6000620012b88482850162001278565b91505092915050565b60008160e01c9050919050565b600060033d1115620012f05760046000803e620012ed600051620012c1565b90505b90565b620012fe826200116d565b810181811067ffffffffffffffff8211171562001320576200131f62000b91565b5b80604052505050565b600060443d10620013c1576200133e62001223565b60043d036004823e80513d602482011167ffffffffffffffff8211171562001368575050620013c1565b808201805167ffffffffffffffff811115620013885750505050620013c1565b80602083010160043d038501811115620013a7575050505050620013c1565b620013b882602001850186620012f3565b82955050505050505b90565b600081519050919050565b6000620013dc82620013c4565b620013e8818562000e3b565b9350620013fa81856020860162001137565b62001405816200116d565b840191505092915050565b600060208201905081810360008301526200142c8184620013cf565b905092915050565b7f455243313135353a207472616e7366657220746f206e6f6e204552433131353560008201527f526563656976657220696d706c656d656e746572000000000000000000000000602082015250565b60006200149260348362000e3b565b91506200149f8262001434565b604082019050919050565b60006020820190508181036000830152620014c58162001483565b9050919050565b7f455243313135353a204552433131353552656365697665722072656a6563746560008201527f6420746f6b656e73000000000000000000000000000000000000000000000000602082015250565b60006200152a60288362000e3b565b91506200153782620014cc565b604082019050919050565b600060208201905081810360008301526200155d816200151b565b9050919050565b7f4e487b7100000000000000000000000000000000000000000000000000000000600052602260045260246000fd5b60006002820490506001821680620015ac57607f821691505b602082108103620015c257620015c162001564565b5b50919050565b613d6680620015d86000396000f3fe6080604052600436106101b65760003560e01c8063715018a6116100ec578063e0ac91a51161008a578063ed49bbfe11610064578063ed49bbfe14610634578063f23a6e611461065d578063f242432a1461069a578063f2fde38b146106c3576101b6565b8063e0ac91a5146105a1578063e985e9c5146105cc578063eab6970b14610609576101b6565b8063a22cb465116100c6578063a22cb465146104d5578063bc197c81146104fe578063bd85b0391461053b578063dc12aa5b14610578576101b6565b8063715018a6146104685780637705db851461047f5780638da5cb5b146104aa576101b6565b80633ccfd60b116101595780634b0bddd2116101335780634b0bddd21461039a5780634dc65411146103c35780634e1273f4146103ee5780634f558e791461042b576101b6565b80633ccfd60b1461032a5780633d7c18a114610341578063429b62e51461035d576101b6565b80631b849608116101955780631b8496081461027257806327bfeaf5146102af5780632d296bf1146102d85780632eb2c2d614610301576101b6565b8062fdd58e146101bb57806301ffc9a7146101f85780630e89341c14610235575b600080fd5b3480156101c757600080fd5b506101e260048036038101906101dd919061249f565b6106ec565b6040516101ef91906124ee565b60405180910390f35b34801561020457600080fd5b5061021f600480360381019061021a9190612561565b6107b4565b60405161022c91906125a9565b60405180910390f35b34801561024157600080fd5b5061025c600480360381019061025791906125c4565b6107d6565b604051610269919061268a565b60405180910390f35b34801561027e57600080fd5b50610299600480360381019061029491906125c4565b61086a565b6040516102a691906124ee565b60405180910390f35b3480156102bb57600080fd5b506102d660048036038101906102d191906125c4565b610882565b005b3480156102e457600080fd5b506102ff60048036038101906102fa91906125c4565b610894565b005b34801561030d57600080fd5b50610328600480360381019061032391906128a9565b610961565b005b34801561033657600080fd5b5061033f610a02565b005b61035b600480360381019061035691906125c4565b610a53565b005b34801561036957600080fd5b50610384600480360381019061037f9190612978565b610adf565b60405161039191906125a9565b60405180910390f35b3480156103a657600080fd5b506103c160048036038101906103bc91906129d1565b610aff565b005b3480156103cf57600080fd5b506103d8610b62565b6040516103e591906124ee565b60405180910390f35b3480156103fa57600080fd5b5061041560048036038101906104109190612ad4565b610b67565b6040516104229190612c0a565b60405180910390f35b34801561043757600080fd5b50610452600480360381019061044d91906125c4565b610c80565b60405161045f91906125a9565b60405180910390f35b34801561047457600080fd5b5061047d610c94565b005b34801561048b57600080fd5b50610494610ca8565b6040516104a191906124ee565b60405180910390f35b3480156104b657600080fd5b506104bf610cad565b6040516104cc9190612c3b565b60405180910390f35b3480156104e157600080fd5b506104fc60048036038101906104f791906129d1565b610cd7565b005b34801561050a57600080fd5b5061052560048036038101906105209190612d07565b610ced565b6040516105329190612df2565b60405180910390f35b34801561054757600080fd5b50610562600480360381019061055d91906125c4565b610d1e565b60405161056f91906124ee565b60405180910390f35b34801561058457600080fd5b5061059f600480360381019061059a9190612e0d565b610d44565b005b3480156105ad57600080fd5b506105b6610dde565b6040516105c391906124ee565b60405180910390f35b3480156105d857600080fd5b506105f360048036038101906105ee9190612e8e565b610de3565b60405161060091906125a9565b60405180910390f35b34801561061557600080fd5b5061061e610e4b565b60405161062b91906124ee565b60405180910390f35b34801561064057600080fd5b5061065b60048036038101906106569190612e0d565b610e51565b005b34801561066957600080fd5b50610684600480360381019061067f9190612ece565b610f1d565b6040516106919190612df2565b60405180910390f35b3480156106a657600080fd5b506106c160048036038101906106bc9190612f68565b610f4c565b005b3480156106cf57600080fd5b506106ea60048036038101906106e59190612978565b610fed565b005b60008073ffffffffffffffffffffffffffffffffffffffff168373ffffffffffffffffffffffffffffffffffffffff160361075c576040517f08c379a000000000000000000000000000000000000000000000000000000000815260040161075390613071565b60405180910390fd5b60008083815260200190815260200160002060008473ffffffffffffffffffffffffffffffffffffffff1673ffffffffffffffffffffffffffffffffffffffff16815260200190815260200160002054905092915050565b60006107bf8261109b565b806107cf57506107ce8261117d565b5b9050919050565b6060600280546107e5906130c0565b80601f0160208091040260200160405190810160405280929190818152602001828054610811906130c0565b801561085e5780601f106108335761010080835404028352916020019161085e565b820191906000526020600020905b81548152906001019060200180831161084157829003601f168201915b50505050509050919050565b60066020528060005260406000206000915090505481565b61088a6111f7565b8060058190555050565b60006006600083815260200190815260200160002054905060008110156108ba57600080fd5b806108c63360006106ec565b10156108d157600080fd5b60006108dd30846106ec565b116108e757600080fd5b610904333060008460405180602001604052806000815250611275565b610921303384600160405180602001604052806000815250611275565b7fbac9694ac0daa55169abd117086fe32c89401d9a3b15dd1d34e55e0aa4e47a9d3383600160405161095593929190613136565b60405180910390a15050565b610969611510565b73ffffffffffffffffffffffffffffffffffffffff168573ffffffffffffffffffffffffffffffffffffffff1614806109af57506109ae856109a9611510565b610de3565b5b6109ee576040517f08c379a00000000000000000000000000000000000000000000000000000000081526004016109e5906131df565b60405180910390fd5b6109fb8585858585611518565b5050505050565b610a0a6111f7565b3373ffffffffffffffffffffffffffffffffffffffff166108fc479081150290604051600060405180830381858888f19350505050158015610a50573d6000803e3d6000fd5b50565b60055481610a61919061322e565b3414610a6c57600080fd5b80610a783060006106ec565b1015610a8357600080fd5b610aa0303360008460405180602001604052806000815250611275565b7fbac9694ac0daa55169abd117086fe32c89401d9a3b15dd1d34e55e0aa4e47a9d33600083604051610ad493929190613288565b60405180910390a150565b60076020528060005260406000206000915054906101000a900460ff1681565b610b076111f7565b80600760008473ffffffffffffffffffffffffffffffffffffffff1673ffffffffffffffffffffffffffffffffffffffff16815260200190815260200160002060006101000a81548160ff0219169083151502179055505050565b600081565b60608151835114610bad576040517f08c379a0000000000000000000000000000000000000000000000000000000008152600401610ba490613331565b60405180910390fd5b6000835167ffffffffffffffff811115610bca57610bc96126b1565b5b604051908082528060200260200182016040528015610bf85781602001602082028036833780820191505090505b50905060005b8451811015610c7557610c45858281518110610c1d57610c1c613351565b5b6020026020010151858381518110610c3857610c37613351565b5b60200260200101516106ec565b828281518110610c5857610c57613351565b5b60200260200101818152505080610c6e90613380565b9050610bfe565b508091505092915050565b600080610c8c83611839565b119050919050565b610c9c6111f7565b610ca66000611856565b565b600281565b6000600460009054906101000a900473ffffffffffffffffffffffffffffffffffffffff16905090565b610ce9610ce2611510565b838361191c565b5050565b60007fbc197c819b3e337a6f9652dd10becd7eef83032af3b9d958d3d42f6694146621905098975050505050505050565b6000610d2a30836106ec565b610d3383611839565b610d3d91906133c8565b9050919050565b610d4c6111f7565b610dd8848480806020026020016040519081016040528093929190818152602001838360200280828437600081840152601f19601f82011690508083019250505050505050838380806020026020016040519081016040528093929190818152602001838360200280828437600081840152601f19601f82011690508083019250505050505050611a88565b50505050565b600381565b6000600760008373ffffffffffffffffffffffffffffffffffffffff1673ffffffffffffffffffffffffffffffffffffffff16815260200190815260200160002060009054906101000a900460ff1680610e435750610e428383611b49565b5b905092915050565b60055481565b610e596111f7565b818190508484905014610ea1576040517f08c379a0000000000000000000000000000000000000000000000000000000008152600401610e9890613448565b60405180910390fd5b60005b84849050811015610f16576000858583818110610ec457610ec3613351565b5b9050602002013590506000848484818110610ee257610ee1613351565b5b905060200201359050806006600084815260200190815260200160002081905550505080610f0f90613380565b9050610ea4565b5050505050565b60007ff23a6e612e1ff4830e658fe43f4e3cb4a5f8170bd5d9e69fb5d7a7fa9e4fdf9790509695505050505050565b610f54611510565b73ffffffffffffffffffffffffffffffffffffffff168573ffffffffffffffffffffffffffffffffffffffff161480610f9a5750610f9985610f94611510565b610de3565b5b610fd9576040517f08c379a0000000000000000000000000000000000000000000000000000000008152600401610fd0906131df565b60405180910390fd5b610fe68585858585611275565b5050505050565b610ff56111f7565b600073ffffffffffffffffffffffffffffffffffffffff168173ffffffffffffffffffffffffffffffffffffffff1603611064576040517f08c379a000000000000000000000000000000000000000000000000000000000815260040161105b906134da565b60405180910390fd5b61106d81611856565b50565b505050505050565b6000808273ffffffffffffffffffffffffffffffffffffffff163b119050919050565b60007fd9b67a26000000000000000000000000000000000000000000000000000000007bffffffffffffffffffffffffffffffffffffffffffffffffffffffff1916827bffffffffffffffffffffffffffffffffffffffffffffffffffffffff1916148061116657507f0e89341c000000000000000000000000000000000000000000000000000000007bffffffffffffffffffffffffffffffffffffffffffffffffffffffff1916827bffffffffffffffffffffffffffffffffffffffffffffffffffffffff1916145b80611176575061117582611bdd565b5b9050919050565b60007f4e2312e0000000000000000000000000000000000000000000000000000000007bffffffffffffffffffffffffffffffffffffffffffffffffffffffff1916827bffffffffffffffffffffffffffffffffffffffffffffffffffffffff191614806111f057506111ef8261109b565b5b9050919050565b6111ff611510565b73ffffffffffffffffffffffffffffffffffffffff1661121d610cad565b73ffffffffffffffffffffffffffffffffffffffff1614611273576040517f08c379a000000000000000000000000000000000000000000000000000000000815260040161126a90613546565b60405180910390fd5b565b600073ffffffffffffffffffffffffffffffffffffffff168473ffffffffffffffffffffffffffffffffffffffff16036112e4576040517f08c379a00000000000000000000000000000000000000000000000000000000081526004016112db906135d8565b60405180910390fd5b60006112ee611510565b905060006112fb85611c47565b9050600061130885611c47565b9050611318838989858589611cc1565b600080600088815260200190815260200160002060008a73ffffffffffffffffffffffffffffffffffffffff1673ffffffffffffffffffffffffffffffffffffffff168152602001908152602001600020549050858110156113af576040517f08c379a00000000000000000000000000000000000000000000000000000000081526004016113a69061366a565b60405180910390fd5b85810360008089815260200190815260200160002060008b73ffffffffffffffffffffffffffffffffffffffff1673ffffffffffffffffffffffffffffffffffffffff168152602001908152602001600020819055508560008089815260200190815260200160002060008a73ffffffffffffffffffffffffffffffffffffffff1673ffffffffffffffffffffffffffffffffffffffff1681526020019081526020016000206000828254611464919061368a565b925050819055508773ffffffffffffffffffffffffffffffffffffffff168973ffffffffffffffffffffffffffffffffffffffff168573ffffffffffffffffffffffffffffffffffffffff167fc3d58168c5ae7397731d063d5bbf3d657854427343f4c083240f7aacaa2d0f628a8a6040516114e19291906136e0565b60405180910390a46114f7848a8a86868a611e91565b611505848a8a8a8a8a611e99565b505050505050505050565b600033905090565b815183511461155c576040517f08c379a00000000000000000000000000000000000000000000000000000000081526004016115539061377b565b60405180910390fd5b600073ffffffffffffffffffffffffffffffffffffffff168473ffffffffffffffffffffffffffffffffffffffff16036115cb576040517f08c379a00000000000000000000000000000000000000000000000000000000081526004016115c2906135d8565b60405180910390fd5b60006115d5611510565b90506115e5818787878787611cc1565b60005b845181101561179657600085828151811061160657611605613351565b5b60200260200101519050600085838151811061162557611624613351565b5b60200260200101519050600080600084815260200190815260200160002060008b73ffffffffffffffffffffffffffffffffffffffff1673ffffffffffffffffffffffffffffffffffffffff168152602001908152602001600020549050818110156116c6576040517f08c379a00000000000000000000000000000000000000000000000000000000081526004016116bd9061366a565b60405180910390fd5b81810360008085815260200190815260200160002060008c73ffffffffffffffffffffffffffffffffffffffff1673ffffffffffffffffffffffffffffffffffffffff168152602001908152602001600020819055508160008085815260200190815260200160002060008b73ffffffffffffffffffffffffffffffffffffffff1673ffffffffffffffffffffffffffffffffffffffff168152602001908152602001600020600082825461177b919061368a565b925050819055505050508061178f90613380565b90506115e8565b508473ffffffffffffffffffffffffffffffffffffffff168673ffffffffffffffffffffffffffffffffffffffff168273ffffffffffffffffffffffffffffffffffffffff167f4a39dc06d4c0dbc64b70af90fd698a233a518aa5d07e595d983b8c0526c8f7fb878760405161180d92919061379b565b60405180910390a4611823818787878787611e91565b611831818787878787612070565b505050505050565b600060036000838152602001908152602001600020549050919050565b6000600460009054906101000a900473ffffffffffffffffffffffffffffffffffffffff16905081600460006101000a81548173ffffffffffffffffffffffffffffffffffffffff021916908373ffffffffffffffffffffffffffffffffffffffff1602179055508173ffffffffffffffffffffffffffffffffffffffff168173ffffffffffffffffffffffffffffffffffffffff167f8be0079c531659141344cd1fd0a4f28419497f9722a3daafe3b4186f6b6457e060405160405180910390a35050565b8173ffffffffffffffffffffffffffffffffffffffff168373ffffffffffffffffffffffffffffffffffffffff160361198a576040517f08c379a000000000000000000000000000000000000000000000000000000000815260040161198190613844565b60405180910390fd5b80600160008573ffffffffffffffffffffffffffffffffffffffff1673ffffffffffffffffffffffffffffffffffffffff16815260200190815260200160002060008473ffffffffffffffffffffffffffffffffffffffff1673ffffffffffffffffffffffffffffffffffffffff16815260200190815260200160002060006101000a81548160ff0219169083151502179055508173ffffffffffffffffffffffffffffffffffffffff168373ffffffffffffffffffffffffffffffffffffffff167f17307eab39ab6107e8899845ad3d59bd9653f200f220920489ca2b5937696c3183604051611a7b91906125a9565b60405180910390a3505050565b8051825114611acc576040517f08c379a0000000000000000000000000000000000000000000000000000000008152600401611ac3906138b0565b60405180910390fd5b60005b8251811015611b44576000838281518110611aed57611aec613351565b5b602002602001015190506000838381518110611b0c57611b0b613351565b5b60200260200101519050611b3130838360405180602001604052806000815250612247565b505080611b3d90613380565b9050611acf565b505050565b6000600160008473ffffffffffffffffffffffffffffffffffffffff1673ffffffffffffffffffffffffffffffffffffffff16815260200190815260200160002060008373ffffffffffffffffffffffffffffffffffffffff1673ffffffffffffffffffffffffffffffffffffffff16815260200190815260200160002060009054906101000a900460ff16905092915050565b60007f01ffc9a7000000000000000000000000000000000000000000000000000000007bffffffffffffffffffffffffffffffffffffffffffffffffffffffff1916827bffffffffffffffffffffffffffffffffffffffffffffffffffffffff1916149050919050565b60606000600167ffffffffffffffff811115611c6657611c656126b1565b5b604051908082528060200260200182016040528015611c945781602001602082028036833780820191505090505b5090508281600081518110611cac57611cab613351565b5b60200260200101818152505080915050919050565b611ccf868686868686611070565b600073ffffffffffffffffffffffffffffffffffffffff168573ffffffffffffffffffffffffffffffffffffffff1603611d805760005b8351811015611d7e57828181518110611d2257611d21613351565b5b602002602001015160036000868481518110611d4157611d40613351565b5b602002602001015181526020019081526020016000206000828254611d66919061368a565b9250508190555080611d7790613380565b9050611d06565b505b600073ffffffffffffffffffffffffffffffffffffffff168473ffffffffffffffffffffffffffffffffffffffff1603611e895760005b8351811015611e87576000848281518110611dd557611dd4613351565b5b602002602001015190506000848381518110611df457611df3613351565b5b6020026020010151905060006003600084815260200190815260200160002054905081811015611e59576040517f08c379a0000000000000000000000000000000000000000000000000000000008152600401611e5090613942565b60405180910390fd5b818103600360008581526020019081526020016000208190555050505080611e8090613380565b9050611db7565b505b505050505050565b505050505050565b611eb88473ffffffffffffffffffffffffffffffffffffffff16611078565b15612068578373ffffffffffffffffffffffffffffffffffffffff1663f23a6e6187878686866040518663ffffffff1660e01b8152600401611efe9594939291906139b7565b6020604051808303816000875af1925050508015611f3a57506040513d601f19601f82011682018060405250810190611f379190613a26565b60015b611fdf57611f46613a60565b806308c379a003611fa25750611f5a613a82565b80611f655750611fa4565b806040517f08c379a0000000000000000000000000000000000000000000000000000000008152600401611f99919061268a565b60405180910390fd5b505b6040517f08c379a0000000000000000000000000000000000000000000000000000000008152600401611fd690613b84565b60405180910390fd5b63f23a6e6160e01b7bffffffffffffffffffffffffffffffffffffffffffffffffffffffff1916817bffffffffffffffffffffffffffffffffffffffffffffffffffffffff191614612066576040517f08c379a000000000000000000000000000000000000000000000000000000000815260040161205d90613c16565b60405180910390fd5b505b505050505050565b61208f8473ffffffffffffffffffffffffffffffffffffffff16611078565b1561223f578373ffffffffffffffffffffffffffffffffffffffff1663bc197c8187878686866040518663ffffffff1660e01b81526004016120d5959493929190613c36565b6020604051808303816000875af192505050801561211157506040513d601f19601f8201168201806040525081019061210e9190613a26565b60015b6121b65761211d613a60565b806308c379a0036121795750612131613a82565b8061213c575061217b565b806040517f08c379a0000000000000000000000000000000000000000000000000000000008152600401612170919061268a565b60405180910390fd5b505b6040517f08c379a00000000000000000000000000000000000000000000000000000000081526004016121ad90613b84565b60405180910390fd5b63bc197c8160e01b7bffffffffffffffffffffffffffffffffffffffffffffffffffffffff1916817bffffffffffffffffffffffffffffffffffffffffffffffffffffffff19161461223d576040517f08c379a000000000000000000000000000000000000000000000000000000000815260040161223490613c16565b60405180910390fd5b505b505050505050565b600073ffffffffffffffffffffffffffffffffffffffff168473ffffffffffffffffffffffffffffffffffffffff16036122b6576040517f08c379a00000000000000000000000000000000000000000000000000000000081526004016122ad90613d10565b60405180910390fd5b60006122c0611510565b905060006122cd85611c47565b905060006122da85611c47565b90506122eb83600089858589611cc1565b8460008088815260200190815260200160002060008973ffffffffffffffffffffffffffffffffffffffff1673ffffffffffffffffffffffffffffffffffffffff168152602001908152602001600020600082825461234a919061368a565b925050819055508673ffffffffffffffffffffffffffffffffffffffff16600073ffffffffffffffffffffffffffffffffffffffff168473ffffffffffffffffffffffffffffffffffffffff167fc3d58168c5ae7397731d063d5bbf3d657854427343f4c083240f7aacaa2d0f6289896040516123c89291906136e0565b60405180910390a46123df83600089858589611e91565b6123ee83600089898989611e99565b50505050505050565b6000604051905090565b600080fd5b600080fd5b600073ffffffffffffffffffffffffffffffffffffffff82169050919050565b60006124368261240b565b9050919050565b6124468161242b565b811461245157600080fd5b50565b6000813590506124638161243d565b92915050565b6000819050919050565b61247c81612469565b811461248757600080fd5b50565b60008135905061249981612473565b92915050565b600080604083850312156124b6576124b5612401565b5b60006124c485828601612454565b92505060206124d58582860161248a565b9150509250929050565b6124e881612469565b82525050565b600060208201905061250360008301846124df565b92915050565b60007fffffffff0000000000000000000000000000000000000000000000000000000082169050919050565b61253e81612509565b811461254957600080fd5b50565b60008135905061255b81612535565b92915050565b60006020828403121561257757612576612401565b5b60006125858482850161254c565b91505092915050565b60008115159050919050565b6125a38161258e565b82525050565b60006020820190506125be600083018461259a565b92915050565b6000602082840312156125da576125d9612401565b5b60006125e88482850161248a565b91505092915050565b600081519050919050565b600082825260208201905092915050565b60005b8381101561262b578082015181840152602081019050612610565b8381111561263a576000848401525b50505050565b6000601f19601f8301169050919050565b600061265c826125f1565b61266681856125fc565b935061267681856020860161260d565b61267f81612640565b840191505092915050565b600060208201905081810360008301526126a48184612651565b905092915050565b600080fd5b7f4e487b7100000000000000000000000000000000000000000000000000000000600052604160045260246000fd5b6126e982612640565b810181811067ffffffffffffffff82111715612708576127076126b1565b5b80604052505050565b600061271b6123f7565b905061272782826126e0565b919050565b600067ffffffffffffffff821115612747576127466126b1565b5b602082029050602081019050919050565b600080fd5b600061277061276b8461272c565b612711565b9050808382526020820190506020840283018581111561279357612792612758565b5b835b818110156127bc57806127a8888261248a565b845260208401935050602081019050612795565b5050509392505050565b600082601f8301126127db576127da6126ac565b5b81356127eb84826020860161275d565b91505092915050565b600080fd5b600067ffffffffffffffff821115612814576128136126b1565b5b61281d82612640565b9050602081019050919050565b82818337600083830152505050565b600061284c612847846127f9565b612711565b905082815260208101848484011115612868576128676127f4565b5b61287384828561282a565b509392505050565b600082601f8301126128905761288f6126ac565b5b81356128a0848260208601612839565b91505092915050565b600080600080600060a086880312156128c5576128c4612401565b5b60006128d388828901612454565b95505060206128e488828901612454565b945050604086013567ffffffffffffffff81111561290557612904612406565b5b612911888289016127c6565b935050606086013567ffffffffffffffff81111561293257612931612406565b5b61293e888289016127c6565b925050608086013567ffffffffffffffff81111561295f5761295e612406565b5b61296b8882890161287b565b9150509295509295909350565b60006020828403121561298e5761298d612401565b5b600061299c84828501612454565b91505092915050565b6129ae8161258e565b81146129b957600080fd5b50565b6000813590506129cb816129a5565b92915050565b600080604083850312156129e8576129e7612401565b5b60006129f685828601612454565b9250506020612a07858286016129bc565b9150509250929050565b600067ffffffffffffffff821115612a2c57612a2b6126b1565b5b602082029050602081019050919050565b6000612a50612a4b84612a11565b612711565b90508083825260208201905060208402830185811115612a7357612a72612758565b5b835b81811015612a9c5780612a888882612454565b845260208401935050602081019050612a75565b5050509392505050565b600082601f830112612abb57612aba6126ac565b5b8135612acb848260208601612a3d565b91505092915050565b60008060408385031215612aeb57612aea612401565b5b600083013567ffffffffffffffff811115612b0957612b08612406565b5b612b1585828601612aa6565b925050602083013567ffffffffffffffff811115612b3657612b35612406565b5b612b42858286016127c6565b9150509250929050565b600081519050919050565b600082825260208201905092915050565b6000819050602082019050919050565b612b8181612469565b82525050565b6000612b938383612b78565b60208301905092915050565b6000602082019050919050565b6000612bb782612b4c565b612bc18185612b57565b9350612bcc83612b68565b8060005b83811015612bfd578151612be48882612b87565b9750612bef83612b9f565b925050600181019050612bd0565b5085935050505092915050565b60006020820190508181036000830152612c248184612bac565b905092915050565b612c358161242b565b82525050565b6000602082019050612c506000830184612c2c565b92915050565b600080fd5b60008083601f840112612c7157612c706126ac565b5b8235905067ffffffffffffffff811115612c8e57612c8d612c56565b5b602083019150836020820283011115612caa57612ca9612758565b5b9250929050565b60008083601f840112612cc757612cc66126ac565b5b8235905067ffffffffffffffff811115612ce457612ce3612c56565b5b602083019150836001820283011115612d0057612cff612758565b5b9250929050565b60008060008060008060008060a0898b031215612d2757612d26612401565b5b6000612d358b828c01612454565b9850506020612d468b828c01612454565b975050604089013567ffffffffffffffff811115612d6757612d66612406565b5b612d738b828c01612c5b565b9650965050606089013567ffffffffffffffff811115612d9657612d95612406565b5b612da28b828c01612c5b565b9450945050608089013567ffffffffffffffff811115612dc557612dc4612406565b5b612dd18b828c01612cb1565b92509250509295985092959890939650565b612dec81612509565b82525050565b6000602082019050612e076000830184612de3565b92915050565b60008060008060408587031215612e2757612e26612401565b5b600085013567ffffffffffffffff811115612e4557612e44612406565b5b612e5187828801612c5b565b9450945050602085013567ffffffffffffffff811115612e7457612e73612406565b5b612e8087828801612c5b565b925092505092959194509250565b60008060408385031215612ea557612ea4612401565b5b6000612eb385828601612454565b9250506020612ec485828601612454565b9150509250929050565b60008060008060008060a08789031215612eeb57612eea612401565b5b6000612ef989828a01612454565b9650506020612f0a89828a01612454565b9550506040612f1b89828a0161248a565b9450506060612f2c89828a0161248a565b935050608087013567ffffffffffffffff811115612f4d57612f4c612406565b5b612f5989828a01612cb1565b92509250509295509295509295565b600080600080600060a08688031215612f8457612f83612401565b5b6000612f9288828901612454565b9550506020612fa388828901612454565b9450506040612fb48882890161248a565b9350506060612fc58882890161248a565b925050608086013567ffffffffffffffff811115612fe657612fe5612406565b5b612ff28882890161287b565b9150509295509295909350565b7f455243313135353a2061646472657373207a65726f206973206e6f742061207660008201527f616c6964206f776e657200000000000000000000000000000000000000000000602082015250565b600061305b602a836125fc565b915061306682612fff565b604082019050919050565b6000602082019050818103600083015261308a8161304e565b9050919050565b7f4e487b7100000000000000000000000000000000000000000000000000000000600052602260045260246000fd5b600060028204905060018216806130d857607f821691505b6020821081036130eb576130ea613091565b5b50919050565b6000819050919050565b6000819050919050565b600061312061311b613116846130f1565b6130fb565b612469565b9050919050565b61313081613105565b82525050565b600060608201905061314b6000830186612c2c565b61315860208301856124df565b6131656040830184613127565b949350505050565b7f455243313135353a2063616c6c6572206973206e6f7420746f6b656e206f776e60008201527f6572206e6f7220617070726f7665640000000000000000000000000000000000602082015250565b60006131c9602f836125fc565b91506131d48261316d565b604082019050919050565b600060208201905081810360008301526131f8816131bc565b9050919050565b7f4e487b7100000000000000000000000000000000000000000000000000000000600052601160045260246000fd5b600061323982612469565b915061324483612469565b9250817fffffffffffffffffffffffffffffffffffffffffffffffffffffffffffffffff048311821515161561327d5761327c6131ff565b5b828202905092915050565b600060608201905061329d6000830186612c2c565b6132aa60208301856124df565b6132b760408301846124df565b949350505050565b7f455243313135353a206163636f756e747320616e6420696473206c656e67746860008201527f206d69736d617463680000000000000000000000000000000000000000000000602082015250565b600061331b6029836125fc565b9150613326826132bf565b604082019050919050565b6000602082019050818103600083015261334a8161330e565b9050919050565b7f4e487b7100000000000000000000000000000000000000000000000000000000600052603260045260246000fd5b600061338b82612469565b91507fffffffffffffffffffffffffffffffffffffffffffffffffffffffffffffffff82036133bd576133bc6131ff565b5b600182019050919050565b60006133d382612469565b91506133de83612469565b9250828210156133f1576133f06131ff565b5b828203905092915050565b7f69647320616e6420707269636573206c656e677468206d69736d617463680000600082015250565b6000613432601e836125fc565b915061343d826133fc565b602082019050919050565b6000602082019050818103600083015261346181613425565b9050919050565b7f4f776e61626c653a206e6577206f776e657220697320746865207a65726f206160008201527f6464726573730000000000000000000000000000000000000000000000000000602082015250565b60006134c46026836125fc565b91506134cf82613468565b604082019050919050565b600060208201905081810360008301526134f3816134b7565b9050919050565b7f4f776e61626c653a2063616c6c6572206973206e6f7420746865206f776e6572600082015250565b60006135306020836125fc565b915061353b826134fa565b602082019050919050565b6000602082019050818103600083015261355f81613523565b9050919050565b7f455243313135353a207472616e7366657220746f20746865207a65726f20616460008201527f6472657373000000000000000000000000000000000000000000000000000000602082015250565b60006135c26025836125fc565b91506135cd82613566565b604082019050919050565b600060208201905081810360008301526135f1816135b5565b9050919050565b7f455243313135353a20696e73756666696369656e742062616c616e636520666f60008201527f72207472616e7366657200000000000000000000000000000000000000000000602082015250565b6000613654602a836125fc565b915061365f826135f8565b604082019050919050565b6000602082019050818103600083015261368381613647565b9050919050565b600061369582612469565b91506136a083612469565b9250827fffffffffffffffffffffffffffffffffffffffffffffffffffffffffffffffff038211156136d5576136d46131ff565b5b828201905092915050565b60006040820190506136f560008301856124df565b61370260208301846124df565b9392505050565b7f455243313135353a2069647320616e6420616d6f756e7473206c656e6774682060008201527f6d69736d61746368000000000000000000000000000000000000000000000000602082015250565b60006137656028836125fc565b915061377082613709565b604082019050919050565b6000602082019050818103600083015261379481613758565b9050919050565b600060408201905081810360008301526137b58185612bac565b905081810360208301526137c98184612bac565b90509392505050565b7f455243313135353a2073657474696e6720617070726f76616c2073746174757360008201527f20666f722073656c660000000000000000000000000000000000000000000000602082015250565b600061382e6029836125fc565b9150613839826137d2565b604082019050919050565b6000602082019050818103600083015261385d81613821565b9050919050565b7f69647320616e6420616d6f756e7473206c656e677468206d69736d6174636800600082015250565b600061389a601f836125fc565b91506138a582613864565b602082019050919050565b600060208201905081810360008301526138c98161388d565b9050919050565b7f455243313135353a206275726e20616d6f756e74206578636565647320746f7460008201527f616c537570706c79000000000000000000000000000000000000000000000000602082015250565b600061392c6028836125fc565b9150613937826138d0565b604082019050919050565b6000602082019050818103600083015261395b8161391f565b9050919050565b600081519050919050565b600082825260208201905092915050565b600061398982613962565b613993818561396d565b93506139a381856020860161260d565b6139ac81612640565b840191505092915050565b600060a0820190506139cc6000830188612c2c565b6139d96020830187612c2c565b6139e660408301866124df565b6139f360608301856124df565b8181036080830152613a05818461397e565b90509695505050505050565b600081519050613a2081612535565b92915050565b600060208284031215613a3c57613a3b612401565b5b6000613a4a84828501613a11565b91505092915050565b60008160e01c9050919050565b600060033d1115613a7f5760046000803e613a7c600051613a53565b90505b90565b600060443d10613b0f57613a946123f7565b60043d036004823e80513d602482011167ffffffffffffffff82111715613abc575050613b0f565b808201805167ffffffffffffffff811115613ada5750505050613b0f565b80602083010160043d038501811115613af7575050505050613b0f565b613b06826020018501866126e0565b82955050505050505b90565b7f455243313135353a207472616e7366657220746f206e6f6e204552433131353560008201527f526563656976657220696d706c656d656e746572000000000000000000000000602082015250565b6000613b6e6034836125fc565b9150613b7982613b12565b604082019050919050565b60006020820190508181036000830152613b9d81613b61565b9050919050565b7f455243313135353a204552433131353552656365697665722072656a6563746560008201527f6420746f6b656e73000000000000000000000000000000000000000000000000602082015250565b6000613c006028836125fc565b9150613c0b82613ba4565b604082019050919050565b60006020820190508181036000830152613c2f81613bf3565b9050919050565b600060a082019050613c4b6000830188612c2c565b613c586020830187612c2c565b8181036040830152613c6a8186612bac565b90508181036060830152613c7e8185612bac565b90508181036080830152613c92818461397e565b90509695505050505050565b7f455243313135353a206d696e7420746f20746865207a65726f2061646472657360008201527f7300000000000000000000000000000000000000000000000000000000000000602082015250565b6000613cfa6021836125fc565b9150613d0582613c9e565b604082019050919050565b60006020820190508181036000830152613d2981613ced565b905091905056fea264697066735822122021accb1c172bba5dbd8e9cd4dfcb5307b9a9538c3a00eef0ed7ba62cd7b146b864736f6c634300080e003368747470733a2f2f616e64796b73776f6e672e6769746875622e696f2f706f6c79636172642f746f6b656e2f7b69647d2e6a736f6e",
  "immutableReferences": {},
  "source": "// SPDX-License-Identifier: MIT\npragma solidity ^0.8.0;\n\nimport \"@openzeppelin/contracts/access/Ownable.sol\";\nimport \"@openzeppelin/contracts/token/ERC1155/ERC1155.sol\";\nimport \"@openzeppelin/contracts/token/ERC1155/utils/ERC1155Receiver.sol\";\nimport \"@openzeppelin/contracts/token/ERC1155/extensions/ERC1155Supply.sol\";\n\ncontract PolyCardTokens is ERC1155Supply, ERC1155Receiver, Ownable {\n    uint256 public constant GEM = 0;\n    uint256 public constant ARCHAEOLOGIST = 0x0002;\n    uint256 public constant SWORDSMAN = 0x0003;\n\n    uint256 public gemPrice;\n    mapping(uint256 => uint256) public tokenGemPrices;\n\n    mapping(address => bool) public admins;\n\n    event Sold(address buyer, uint256 tokenId, uint256 amount);\n\n    constructor()\n        ERC1155(\"https://andykswong.github.io/polycard/token/{id}.json\")\n    {\n        uint256[] memory ids = new uint256[](3);\n        uint256[] memory amounts = new uint256[](3);\n        ids[0] = GEM;\n        amounts[0] = 10**18;\n        ids[1] = ARCHAEOLOGIST;\n        amounts[1] = 10**3;\n        ids[2] = SWORDSMAN;\n        amounts[2] = 10**3;\n        _increaseSupplyBatch(ids, amounts);\n\n        gemPrice = 5 * uint256(10) ** 14;\n        tokenGemPrices[ARCHAEOLOGIST] = 200;\n        tokenGemPrices[SWORDSMAN] = 200;\n\n        // TODO: testing only, to be removed\n        _mint(0x6E12A2f11De0b963ed63a1C70b2fFD4B88dF5365, GEM, 1000, '');\n    }\n\n    function buyGems(uint256 gems) public payable {\n        require(msg.value == gems * gemPrice);\n        require(balanceOf(address(this), GEM) >= gems);\n\n        _safeTransferFrom(address(this), msg.sender, GEM, gems, '');\n\n        emit Sold(msg.sender, GEM, gems);\n    }\n\n    function buyToken(uint256 id) public {\n        uint256 tokenPrice = tokenGemPrices[id];\n        require(tokenPrice >= 0);\n        require(balanceOf(address(msg.sender), GEM) >= tokenPrice);\n        require(balanceOf(address(this), id) > 0);\n\n        _safeTransferFrom(msg.sender, address(this), GEM, tokenPrice, '');\n        _safeTransferFrom(address(this), msg.sender, id, 1, '');\n\n        emit Sold(msg.sender, id, 1);\n    }\n\n    function withdraw() external onlyOwner {\n        payable(msg.sender).transfer(address(this).balance);\n    }\n\n    function increaseSupplyBatch(\n        uint256[] calldata ids,\n        uint256[] calldata amounts\n    ) external onlyOwner {\n        _increaseSupplyBatch(ids, amounts);\n    }\n\n    function setAdmin(\n        address account, bool approved\n    ) public onlyOwner {\n        admins[account] = approved;\n    }\n\n    function setGemPrice(\n        uint256 price\n    ) public onlyOwner {\n        gemPrice = price;\n    }\n\n    function setTokenGemPriceBatch(\n        uint256[] calldata ids,\n        uint256[] calldata prices\n    ) external onlyOwner {\n        require(ids.length == prices.length, \"ids and prices length mismatch\");\n        for (uint256 i = 0; i < ids.length; ++i) {\n            uint256 id = ids[i];\n            uint256 price = prices[i];\n            tokenGemPrices[id] = price;\n        }\n    }\n\n    function isApprovedForAll(address account, address operator) public view virtual override returns (bool) {\n        return admins[operator] || super.isApprovedForAll(account, operator);\n    }\n\n    function totalSupply(uint256 id)\n        public\n        view\n        virtual\n        override\n        returns (uint256)\n    {\n        return\n            ERC1155Supply.totalSupply(id) -\n            ERC1155.balanceOf(address(this), id);\n    }\n\n    function supportsInterface(bytes4 interfaceId)\n        public\n        view\n        virtual\n        override(ERC1155, ERC1155Receiver)\n        returns (bool)\n    {\n        return (ERC1155.supportsInterface(interfaceId) ||\n            ERC1155Receiver.supportsInterface(interfaceId));\n    }\n\n    function onERC1155Received(\n        address /* operator */,\n        address /* from */,\n        uint256 /* id */,\n        uint256 /* value */,\n        bytes calldata /* data */\n    ) external pure override returns (bytes4) {\n        return\n            bytes4(\n                keccak256(\n                    \"onERC1155Received(address,address,uint256,uint256,bytes)\"\n                )\n            );\n    }\n\n    function onERC1155BatchReceived(\n        address /* operator */,\n        address /* from */,\n        uint256[] calldata /* ids */,\n        uint256[] calldata /* values */,\n        bytes calldata /* data */\n    ) external pure override returns (bytes4) {\n        return\n            bytes4(\n                keccak256(\n                    \"onERC1155BatchReceived(address,address,uint256[],uint256[],bytes)\"\n                )\n            );\n    }\n\n    function _increaseSupplyBatch(\n        uint256[] memory ids,\n        uint256[] memory amounts\n    ) internal {\n        require(ids.length == amounts.length, \"ids and amounts length mismatch\");\n        for (uint256 i = 0; i < ids.length; ++i) {\n            uint256 id = ids[i];\n            uint256 amount = amounts[i];\n            _mint(address(this), id, amount, \"\");\n        }\n    }\n}\n",
  "sourcePath": "/Users/kwokwong/Documents/PoCs/polycards/contracts/contracts/PolyCardTokens.sol",
  "compiler": {
    "name": "solc",
    "version": "0.8.14+commit.80d49f37.Emscripten.clang"
  },
  "schemaVersion": "3.4.8",
  "updatedAt": "2022-08-22T07:41:05.275Z",
  "networkType": "ethereum",
  "devdoc": {
    "kind": "dev",
    "methods": {
      "balanceOf(address,uint256)": {
        "details": "See {IERC1155-balanceOf}. Requirements: - `account` cannot be the zero address."
      },
      "balanceOfBatch(address[],uint256[])": {
        "details": "See {IERC1155-balanceOfBatch}. Requirements: - `accounts` and `ids` must have the same length."
      },
      "exists(uint256)": {
        "details": "Indicates whether any token exist with a given id, or not."
      },
      "isApprovedForAll(address,address)": {
        "details": "See {IERC1155-isApprovedForAll}."
      },
      "owner()": {
        "details": "Returns the address of the current owner."
      },
      "renounceOwnership()": {
        "details": "Leaves the contract without owner. It will not be possible to call `onlyOwner` functions anymore. Can only be called by the current owner. NOTE: Renouncing ownership will leave the contract without an owner, thereby removing any functionality that is only available to the owner."
      },
      "safeBatchTransferFrom(address,address,uint256[],uint256[],bytes)": {
        "details": "See {IERC1155-safeBatchTransferFrom}."
      },
      "safeTransferFrom(address,address,uint256,uint256,bytes)": {
        "details": "See {IERC1155-safeTransferFrom}."
      },
      "setApprovalForAll(address,bool)": {
        "details": "See {IERC1155-setApprovalForAll}."
      },
      "totalSupply(uint256)": {
        "details": "Total amount of tokens in with a given id."
      },
      "transferOwnership(address)": {
        "details": "Transfers ownership of the contract to a new account (`newOwner`). Can only be called by the current owner."
      },
      "uri(uint256)": {
        "details": "See {IERC1155MetadataURI-uri}. This implementation returns the same URI for *all* token types. It relies on the token type ID substitution mechanism https://eips.ethereum.org/EIPS/eip-1155#metadata[defined in the EIP]. Clients calling this function must replace the `\\{id\\}` substring with the actual token type ID."
      }
    },
    "version": 1
  },
  "userdoc": {
    "kind": "user",
    "methods": {},
    "version": 1
  }
}