{
  "contractName": "PolyCardGame",
  "abi": [
    {
      "inputs": [
        {
          "internalType": "contract PolyCardTokens",
          "name": "_tokenContract",
          "type": "address"
        }
      ],
      "stateMutability": "nonpayable",
      "type": "constructor"
    },
    {
      "anonymous": false,
      "inputs": [
        {
          "indexed": false,
          "internalType": "address",
          "name": "player",
          "type": "address"
        },
        {
          "indexed": false,
          "internalType": "bool",
          "name": "win",
          "type": "bool"
        },
        {
          "indexed": false,
          "internalType": "uint256",
          "name": "gems",
          "type": "uint256"
        }
      ],
      "name": "GameEnd",
      "type": "event"
    },
    {
      "anonymous": false,
      "inputs": [
        {
          "indexed": false,
          "internalType": "address",
          "name": "player",
          "type": "address"
        }
      ],
      "name": "GameStart",
      "type": "event"
    },
    {
      "anonymous": false,
      "inputs": [
        {
          "indexed": true,
          "internalType": "address",
          "name": "previousOwner",
          "type": "address"
        },
        {
          "indexed": true,
          "internalType": "address",
          "name": "newOwner",
          "type": "address"
        }
      ],
      "name": "OwnershipTransferred",
      "type": "event"
    },
    {
      "inputs": [],
      "name": "CARD_FOE",
      "outputs": [
        {
          "internalType": "uint32",
          "name": "",
          "type": "uint32"
        }
      ],
      "stateMutability": "view",
      "type": "function",
      "constant": true
    },
    {
      "inputs": [],
      "name": "CARD_FOOD",
      "outputs": [
        {
          "internalType": "uint32",
          "name": "",
          "type": "uint32"
        }
      ],
      "stateMutability": "view",
      "type": "function",
      "constant": true
    },
    {
      "inputs": [],
      "name": "CARD_PILES",
      "outputs": [
        {
          "internalType": "uint32",
          "name": "",
          "type": "uint32"
        }
      ],
      "stateMutability": "view",
      "type": "function",
      "constant": true
    },
    {
      "inputs": [],
      "name": "CARD_TREASURE",
      "outputs": [
        {
          "internalType": "uint32",
          "name": "",
          "type": "uint32"
        }
      ],
      "stateMutability": "view",
      "type": "function",
      "constant": true
    },
    {
      "inputs": [],
      "name": "CARD_WEAPON",
      "outputs": [
        {
          "internalType": "uint32",
          "name": "",
          "type": "uint32"
        }
      ],
      "stateMutability": "view",
      "type": "function",
      "constant": true
    },
    {
      "inputs": [],
      "name": "GEMS_PER_GAME",
      "outputs": [
        {
          "internalType": "uint256",
          "name": "",
          "type": "uint256"
        }
      ],
      "stateMutability": "view",
      "type": "function",
      "constant": true
    },
    {
      "inputs": [],
      "name": "HERO_ABILITY_DUAL_WIELD",
      "outputs": [
        {
          "internalType": "uint32",
          "name": "",
          "type": "uint32"
        }
      ],
      "stateMutability": "view",
      "type": "function",
      "constant": true
    },
    {
      "inputs": [],
      "name": "HERO_ABILITY_EXTRA_GEM",
      "outputs": [
        {
          "internalType": "uint32",
          "name": "",
          "type": "uint32"
        }
      ],
      "stateMutability": "view",
      "type": "function",
      "constant": true
    },
    {
      "inputs": [],
      "name": "HERO_ABILITY_EXTRA_HP",
      "outputs": [
        {
          "internalType": "uint32",
          "name": "",
          "type": "uint32"
        }
      ],
      "stateMutability": "view",
      "type": "function",
      "constant": true
    },
    {
      "inputs": [],
      "name": "HERO_ADVENTURER",
      "outputs": [
        {
          "internalType": "uint32",
          "name": "",
          "type": "uint32"
        }
      ],
      "stateMutability": "view",
      "type": "function",
      "constant": true
    },
    {
      "inputs": [],
      "name": "HERO_DEFAULT_HP",
      "outputs": [
        {
          "internalType": "uint32",
          "name": "",
          "type": "uint32"
        }
      ],
      "stateMutability": "view",
      "type": "function",
      "constant": true
    },
    {
      "inputs": [],
      "name": "MIN_CARDS_PER_PILE",
      "outputs": [
        {
          "internalType": "uint32",
          "name": "",
          "type": "uint32"
        }
      ],
      "stateMutability": "view",
      "type": "function",
      "constant": true
    },
    {
      "inputs": [],
      "name": "SLOTS",
      "outputs": [
        {
          "internalType": "uint32",
          "name": "",
          "type": "uint32"
        }
      ],
      "stateMutability": "view",
      "type": "function",
      "constant": true
    },
    {
      "inputs": [],
      "name": "SLOT_HERO",
      "outputs": [
        {
          "internalType": "uint32",
          "name": "",
          "type": "uint32"
        }
      ],
      "stateMutability": "view",
      "type": "function",
      "constant": true
    },
    {
      "inputs": [],
      "name": "SLOT_ITEM",
      "outputs": [
        {
          "internalType": "uint32",
          "name": "",
          "type": "uint32"
        }
      ],
      "stateMutability": "view",
      "type": "function",
      "constant": true
    },
    {
      "inputs": [],
      "name": "SLOT_PILE0",
      "outputs": [
        {
          "internalType": "uint32",
          "name": "",
          "type": "uint32"
        }
      ],
      "stateMutability": "view",
      "type": "function",
      "constant": true
    },
    {
      "inputs": [],
      "name": "SLOT_PILE1",
      "outputs": [
        {
          "internalType": "uint32",
          "name": "",
          "type": "uint32"
        }
      ],
      "stateMutability": "view",
      "type": "function",
      "constant": true
    },
    {
      "inputs": [],
      "name": "SLOT_PILE2",
      "outputs": [
        {
          "internalType": "uint32",
          "name": "",
          "type": "uint32"
        }
      ],
      "stateMutability": "view",
      "type": "function",
      "constant": true
    },
    {
      "inputs": [],
      "name": "SLOT_PILE3",
      "outputs": [
        {
          "internalType": "uint32",
          "name": "",
          "type": "uint32"
        }
      ],
      "stateMutability": "view",
      "type": "function",
      "constant": true
    },
    {
      "inputs": [],
      "name": "SLOT_TRASH",
      "outputs": [
        {
          "internalType": "uint32",
          "name": "",
          "type": "uint32"
        }
      ],
      "stateMutability": "view",
      "type": "function",
      "constant": true
    },
    {
      "inputs": [],
      "name": "SLOT_WEAPON0",
      "outputs": [
        {
          "internalType": "uint32",
          "name": "",
          "type": "uint32"
        }
      ],
      "stateMutability": "view",
      "type": "function",
      "constant": true
    },
    {
      "inputs": [],
      "name": "SLOT_WEAPON1",
      "outputs": [
        {
          "internalType": "uint32",
          "name": "",
          "type": "uint32"
        }
      ],
      "stateMutability": "view",
      "type": "function",
      "constant": true
    },
    {
      "inputs": [
        {
          "internalType": "uint32",
          "name": "",
          "type": "uint32"
        }
      ],
      "name": "cards",
      "outputs": [
        {
          "internalType": "bool",
          "name": "",
          "type": "bool"
        }
      ],
      "stateMutability": "view",
      "type": "function",
      "constant": true
    },
    {
      "inputs": [
        {
          "internalType": "uint32",
          "name": "",
          "type": "uint32"
        },
        {
          "internalType": "uint256",
          "name": "",
          "type": "uint256"
        }
      ],
      "name": "cardsByType",
      "outputs": [
        {
          "internalType": "uint32",
          "name": "",
          "type": "uint32"
        }
      ],
      "stateMutability": "view",
      "type": "function",
      "constant": true
    },
    {
      "inputs": [
        {
          "internalType": "address",
          "name": "",
          "type": "address"
        },
        {
          "internalType": "uint256",
          "name": "",
          "type": "uint256"
        }
      ],
      "name": "games",
      "outputs": [
        {
          "internalType": "uint256",
          "name": "",
          "type": "uint256"
        }
      ],
      "stateMutability": "view",
      "type": "function",
      "constant": true
    },
    {
      "inputs": [
        {
          "internalType": "uint32",
          "name": "",
          "type": "uint32"
        }
      ],
      "name": "heroAbilities",
      "outputs": [
        {
          "internalType": "uint32",
          "name": "",
          "type": "uint32"
        }
      ],
      "stateMutability": "view",
      "type": "function",
      "constant": true
    },
    {
      "inputs": [
        {
          "internalType": "uint32",
          "name": "",
          "type": "uint32"
        }
      ],
      "name": "heroHps",
      "outputs": [
        {
          "internalType": "uint32",
          "name": "",
          "type": "uint32"
        }
      ],
      "stateMutability": "view",
      "type": "function",
      "constant": true
    },
    {
      "inputs": [
        {
          "internalType": "uint32",
          "name": "",
          "type": "uint32"
        }
      ],
      "name": "heroStartWeapons",
      "outputs": [
        {
          "internalType": "uint32",
          "name": "",
          "type": "uint32"
        }
      ],
      "stateMutability": "view",
      "type": "function",
      "constant": true
    },
    {
      "inputs": [],
      "name": "owner",
      "outputs": [
        {
          "internalType": "address",
          "name": "",
          "type": "address"
        }
      ],
      "stateMutability": "view",
      "type": "function",
      "constant": true
    },
    {
      "inputs": [],
      "name": "renounceOwnership",
      "outputs": [],
      "stateMutability": "nonpayable",
      "type": "function"
    },
    {
      "inputs": [],
      "name": "tokenContract",
      "outputs": [
        {
          "internalType": "contract PolyCardTokens",
          "name": "",
          "type": "address"
        }
      ],
      "stateMutability": "view",
      "type": "function",
      "constant": true
    },
    {
      "inputs": [
        {
          "internalType": "address",
          "name": "newOwner",
          "type": "address"
        }
      ],
      "name": "transferOwnership",
      "outputs": [],
      "stateMutability": "nonpayable",
      "type": "function"
    },
    {
      "inputs": [
        {
          "internalType": "uint32",
          "name": "hero",
          "type": "uint32"
        }
      ],
      "name": "start",
      "outputs": [],
      "stateMutability": "nonpayable",
      "type": "function"
    },
    {
      "inputs": [
        {
          "internalType": "uint32",
          "name": "fromSlot",
          "type": "uint32"
        },
        {
          "internalType": "uint32",
          "name": "toSlot",
          "type": "uint32"
        }
      ],
      "name": "move",
      "outputs": [],
      "stateMutability": "nonpayable",
      "type": "function"
    },
    {
      "inputs": [
        {
          "internalType": "address",
          "name": "account",
          "type": "address"
        }
      ],
      "name": "checkEndGame",
      "outputs": [],
      "stateMutability": "nonpayable",
      "type": "function"
    },
    {
      "inputs": [
        {
          "internalType": "address",
          "name": "account",
          "type": "address"
        }
      ],
      "name": "getGameState",
      "outputs": [
        {
          "internalType": "uint256[9]",
          "name": "",
          "type": "uint256[9]"
        }
      ],
      "stateMutability": "view",
      "type": "function",
      "constant": true
    },
    {
      "inputs": [
        {
          "internalType": "uint32[]",
          "name": "_cards",
          "type": "uint32[]"
        }
      ],
      "name": "registerCards",
      "outputs": [],
      "stateMutability": "nonpayable",
      "type": "function"
    },
    {
      "inputs": [
        {
          "internalType": "uint32[]",
          "name": "heroes",
          "type": "uint32[]"
        },
        {
          "internalType": "uint32[]",
          "name": "hps",
          "type": "uint32[]"
        },
        {
          "internalType": "uint32[]",
          "name": "startWeapons",
          "type": "uint32[]"
        },
        {
          "internalType": "uint32[]",
          "name": "abilities",
          "type": "uint32[]"
        }
      ],
      "name": "registerHeroes",
      "outputs": [],
      "stateMutability": "nonpayable",
      "type": "function"
    }
  ],
  "bytecode": "0x60806040523480156200001157600080fd5b5060405162002fdc38038062002fdc8339818101604052810190620000379190620001e9565b620000576200004b6200009f60201b60201c565b620000a760201b60201c565b80600160006101000a81548173ffffffffffffffffffffffffffffffffffffffff021916908373ffffffffffffffffffffffffffffffffffffffff160217905550506200021b565b600033905090565b60008060009054906101000a900473ffffffffffffffffffffffffffffffffffffffff169050816000806101000a81548173ffffffffffffffffffffffffffffffffffffffff021916908373ffffffffffffffffffffffffffffffffffffffff1602179055508173ffffffffffffffffffffffffffffffffffffffff168173ffffffffffffffffffffffffffffffffffffffff167f8be0079c531659141344cd1fd0a4f28419497f9722a3daafe3b4186f6b6457e060405160405180910390a35050565b600080fd5b600073ffffffffffffffffffffffffffffffffffffffff82169050919050565b60006200019d8262000170565b9050919050565b6000620001b18262000190565b9050919050565b620001c381620001a4565b8114620001cf57600080fd5b50565b600081519050620001e381620001b8565b92915050565b6000602082840312156200020257620002016200016b565b5b60006200021284828501620001d2565b91505092915050565b612db1806200022b6000396000f3fe608060405234801561001057600080fd5b50600436106102325760003560e01c8063803cf89d11610130578063bffab3b4116100b8578063da76278a1161007c578063da76278a14610653578063dd7e760814610683578063e5037690146106a1578063eecc12ab146106d1578063f2fde38b146106ed57610232565b8063bffab3b4146105ad578063c2897ddf146105c9578063c37bd5b0146105e7578063d8a1bb8d14610605578063d9d60b521461062357610232565b80638da5cb5b116100ff5780638da5cb5b146105075780639696ef6614610525578063ace6f97314610543578063aed5f40d14610573578063b63e0cd81461059157610232565b8063803cf89d14610491578063809282dc146104af5780638823ef7c146104cd578063883e5e10146104eb57610232565b80633631b01c116101be57806355a373d61161018257806355a373d6146103fd57806355cdae231461041b578063715018a61461043957806377c4fbe814610443578063798500c21461046157610232565b80633631b01c1461035557806338c66586146103735780634b48eb91146103915780634c75f9d0146103af5780634cdde245146103cd57610232565b80632502d2f1116102055780632502d2f1146102ad578063260037c5146102cb5780632a8ec9b8146102e957806333bbfbf11461031957806335bfc2961461033757610232565b80630c9411a4146102375780630f5c5b06146102555780630fd3d3451461027357806316254d8d14610291575b600080fd5b61023f610709565b60405161024c919061225d565b60405180910390f35b61025d61070e565b60405161026a919061225d565b60405180910390f35b61027b610713565b604051610288919061225d565b60405180910390f35b6102ab60048036038101906102a691906122ae565b610718565b005b6102b5610db5565b6040516102c2919061225d565b60405180910390f35b6102d3610dba565b6040516102e0919061225d565b60405180910390f35b61030360048036038101906102fe9190612382565b610dbf565b60405161031091906123d1565b60405180910390f35b610321610de7565b60405161032e919061225d565b60405180910390f35b61033f610dec565b60405161034c919061225d565b60405180910390f35b61035d610df1565b60405161036a919061225d565b60405180910390f35b61037b610df6565b604051610388919061225d565b60405180910390f35b610399610dfb565b6040516103a6919061225d565b60405180910390f35b6103b7610e00565b6040516103c4919061225d565b60405180910390f35b6103e760048036038101906103e291906123ec565b610e05565b6040516103f4919061225d565b60405180910390f35b610405610e4e565b604051610412919061248b565b60405180910390f35b610423610e74565b604051610430919061225d565b60405180910390f35b610441610e79565b005b61044b610e8d565b604051610458919061225d565b60405180910390f35b61047b600480360381019061047691906124a6565b610e92565b60405161048891906124ee565b60405180910390f35b610499610eb2565b6040516104a6919061225d565b60405180910390f35b6104b7610eb7565b6040516104c4919061225d565b60405180910390f35b6104d5610ebc565b6040516104e2919061225d565b60405180910390f35b6105056004803603810190610500919061256e565b610ec1565b005b61050f611097565b60405161051c9190612666565b60405180910390f35b61052d6110c0565b60405161053a919061225d565b60405180910390f35b61055d600480360381019061055891906124a6565b6110c5565b60405161056a919061225d565b60405180910390f35b61057b6110e8565b604051610588919061225d565b60405180910390f35b6105ab60048036038101906105a691906124a6565b6110ed565b005b6105c760048036038101906105c29190612681565b61162a565b005b6105d16117cf565b6040516105de919061225d565b60405180910390f35b6105ef6117d4565b6040516105fc91906123d1565b60405180910390f35b61060d6117d9565b60405161061a919061225d565b60405180910390f35b61063d600480360381019061063891906126ce565b6117de565b60405161064a91906127a6565b60405180910390f35b61066d600480360381019061066891906124a6565b611868565b60405161067a919061225d565b60405180910390f35b61068b61188b565b604051610698919061225d565b60405180910390f35b6106bb60048036038101906106b691906124a6565b611890565b6040516106c8919061225d565b60405180910390f35b6106eb60048036038101906106e691906126ce565b6118b3565b005b610707600480360381019061070291906126ce565b611b79565b005b600381565b600481565b600181565b6000600760003373ffffffffffffffffffffffffffffffffffffffff1673ffffffffffffffffffffffffffffffffffffffff1681526020019081526020016000209050600080600061078484600463ffffffff166009811061077d5761077c6127c2565b5b0154611bfc565b9350935093505060008060006107b3878a63ffffffff16600981106107ac576107ab6127c2565b5b0154611bfc565b5092509250925060008060006107e28a8c63ffffffff16600981106107db576107da6127c2565b5b0154611bfc565b5092509250925060008963ffffffff16118015610805575060008863ffffffff16115b8015610817575060008563ffffffff16115b61082057600080fd5b600061082b86611c39565b9050600863ffffffff168c63ffffffff16036108c857600363ffffffff168163ffffffff1614806108685750600263ffffffff168163ffffffff16145b8061087f5750600463ffffffff168163ffffffff16145b61088857600080fd5b61089187611c4d565b8b8e63ffffffff16600981106108aa576108a96127c2565b5b01819055506108b8336118b3565b5050505050505050505050610db1565b600563ffffffff168c63ffffffff1614806109005750600663ffffffff168c63ffffffff161480156108ff57506108fe8a611cb1565b5b5b80156109185750600463ffffffff168163ffffffff16145b8061095e5750600763ffffffff168c63ffffffff1614801561095d5750600363ffffffff168163ffffffff16148061095c5750600263ffffffff168163ffffffff16145b5b5b156109e25760008363ffffffff161461097657600080fd5b610984600087876000611cfb565b8b8d63ffffffff166009811061099d5761099c6127c2565b5b01819055506109ab87611c4d565b8b8e63ffffffff16600981106109c4576109c36127c2565b5b01819055506109d2336118b3565b5050505050505050505050610db1565b600463ffffffff168c63ffffffff1603610c3457600363ffffffff168163ffffffff161480610a1d5750600263ffffffff168163ffffffff16145b80610a345750600163ffffffff168163ffffffff16145b610a3d57600080fd5b6000600363ffffffff168263ffffffff1603610afc57610a5c8b611d4d565b868b610a689190612820565b610a729190612820565b9050610a7d8b611da9565b63ffffffff168163ffffffff161115610a9c57610a998b611da9565b90505b610aa960008c838c611cfb565b8c8e63ffffffff1660098110610ac257610ac16127c2565b5b0181905550610ad088611c4d565b8c8f63ffffffff1660098110610ae957610ae86127c2565b5b0181905550610af7336118b3565b610c23565b600263ffffffff168263ffffffff1603610b8e57610b3b60008c8c610b208f611dfa565b8a8e610b2c9190612820565b610b369190612820565b611cfb565b8c8e63ffffffff1660098110610b5457610b536127c2565b5b0181905550610b6288611c4d565b8c8f63ffffffff1660098110610b7b57610b7a6127c2565b5b0181905550610b89336118b3565b610c22565b600163ffffffff168263ffffffff1603610c21578563ffffffff168a63ffffffff161115610bc557858a610bc2919061285a565b90505b610bd260008c838c611cfb565b8c8e63ffffffff1660098110610beb57610bea6127c2565b5b0181905550610bf988611c4d565b8c8f63ffffffff1660098110610c1257610c116127c2565b5b0181905550610c20336118b3565b5b5b5b505050505050505050505050610db1565b600063ffffffff168c63ffffffff1610158015610c5e5750600363ffffffff168c63ffffffff1611155b15610d6457600463ffffffff168163ffffffff16148015610c85575060008363ffffffff16115b8015610ca55750600163ffffffff16610c9d84611c39565b63ffffffff16145b610cae57600080fd5b610cb787611c4d565b8b8e63ffffffff1660098110610cd057610ccf6127c2565b5b01819055508163ffffffff168563ffffffff1610610d1d57610cf184611c4d565b8b8d63ffffffff1660098110610d0a57610d096127c2565b5b0181905550610d18336118b3565b610d54565b610d3584848785610d2e919061285a565b6000611cfb565b8b8d63ffffffff1660098110610d4e57610d4d6127c2565b5b01819055505b5050505050505050505050610db1565b6000610da5576040517f08c379a0000000000000000000000000000000000000000000000000000000008152600401610d9c906128eb565b60405180910390fd5b50505050505050505050505b5050565b600181565b600481565b60076020528160005260406000208160098110610ddb57600080fd5b01600091509150505481565b600481565b600581565b600181565b600281565b600081565b600281565b60036020528160005260406000208181548110610e2157600080fd5b9060005260206000209060089182820401919006600402915091509054906101000a900463ffffffff1681565b600160009054906101000a900473ffffffffffffffffffffffffffffffffffffffff1681565b600681565b610e81611e56565b610e8b6000611ed4565b565b600481565b60026020528060005260406000206000915054906101000a900460ff1681565b600281565b600781565b600181565b610ec9611e56565b60005b8888905081101561108c57868682818110610eea57610ee96127c2565b5b9050602002016020810190610eff91906124a6565b600460008b8b85818110610f1657610f156127c2565b5b9050602002016020810190610f2b91906124a6565b63ffffffff1663ffffffff16815260200190815260200160002060006101000a81548163ffffffff021916908363ffffffff160217905550848482818110610f7657610f756127c2565b5b9050602002016020810190610f8b91906124a6565b600560008b8b85818110610fa257610fa16127c2565b5b9050602002016020810190610fb791906124a6565b63ffffffff1663ffffffff16815260200190815260200160002060006101000a81548163ffffffff021916908363ffffffff160217905550828282818110611002576110016127c2565b5b905060200201602081019061101791906124a6565b600660008b8b8581811061102e5761102d6127c2565b5b905060200201602081019061104391906124a6565b63ffffffff1663ffffffff16815260200190815260200160002060006101000a81548163ffffffff021916908363ffffffff160217905550806110859061290b565b9050610ecc565b505050505050505050565b60008060009054906101000a900473ffffffffffffffffffffffffffffffffffffffff16905090565b600981565b60046020528060005260406000206000915054906101000a900463ffffffff1681565b600681565b600a600160009054906101000a900473ffffffffffffffffffffffffffffffffffffffff1673ffffffffffffffffffffffffffffffffffffffff1662fdd58e33600160009054906101000a900473ffffffffffffffffffffffffffffffffffffffff1673ffffffffffffffffffffffffffffffffffffffff16634dc654116040518163ffffffff1660e01b8152600401602060405180830381865afa15801561119a573d6000803e3d6000fd5b505050506040513d601f19601f820116820180604052508101906111be9190612968565b6040518363ffffffff1660e01b81526004016111db929190612995565b602060405180830381865afa1580156111f8573d6000803e3d6000fd5b505050506040513d601f19601f8201168201806040525081019061121c9190612968565b101561122757600080fd5b600163ffffffff168163ffffffff1614806112de57506000600160009054906101000a900473ffffffffffffffffffffffffffffffffffffffff1673ffffffffffffffffffffffffffffffffffffffff1662fdd58e33846040518363ffffffff1660e01b815260040161129b9291906129ef565b602060405180830381865afa1580156112b8573d6000803e3d6000fd5b505050506040513d601f19601f820116820180604052508101906112dc9190612968565b115b6112e757600080fd5b60006112f1611f98565b90506112fb6121be565b61131160008461130a86611da9565b6000611cfb565b81600463ffffffff166009811061132b5761132a6127c2565b5b6020020181815250506113a86000600560008663ffffffff1663ffffffff16815260200190815260200160002060009054906101000a900463ffffffff166113a1600560008863ffffffff1663ffffffff16815260200190815260200160002060009054906101000a900463ffffffff16611fb0565b6000611cfb565b81600563ffffffff16600981106113c2576113c16127c2565b5b60200201818152505060005b600463ffffffff168163ffffffff161015611458576000806113ef85611fc7565b915091508094506114178360066114069190612820565b8361141085611fb0565b6000611cfb565b848460006114259190612820565b63ffffffff166009811061143c5761143b6127c2565b5b60200201818152505050508061145190612a18565b90506113ce565b5080600760003373ffffffffffffffffffffffffffffffffffffffff1673ffffffffffffffffffffffffffffffffffffffff1681526020019081526020016000209060096114a79291906121e1565b50600160009054906101000a900473ffffffffffffffffffffffffffffffffffffffff1673ffffffffffffffffffffffffffffffffffffffff1663f242432a33600160009054906101000a900473ffffffffffffffffffffffffffffffffffffffff16600160009054906101000a900473ffffffffffffffffffffffffffffffffffffffff1673ffffffffffffffffffffffffffffffffffffffff16634dc654116040518163ffffffff1660e01b8152600401602060405180830381865afa158015611577573d6000803e3d6000fd5b505050506040513d601f19601f8201168201806040525081019061159b9190612968565b600a6040518563ffffffff1660e01b81526004016115bc9493929190612a7b565b600060405180830381600087803b1580156115d657600080fd5b505af11580156115ea573d6000803e3d6000fd5b505050507fb3e736faa4964dca0165113d691c436b6fb927baffb3e664f43e18663bdaad123360405161161d9190612666565b60405180910390a1505050565b611632611e56565b60005b828290508110156117ca5760026000848484818110611657576116566127c2565b5b905060200201602081019061166c91906124a6565b63ffffffff1663ffffffff16815260200190815260200160002060009054906101000a900460ff166117b9576001600260008585858181106116b1576116b06127c2565b5b90506020020160208101906116c691906124a6565b63ffffffff1663ffffffff16815260200190815260200160002060006101000a81548160ff0219169083151502179055506003600061172b858585818110611711576117106127c2565b5b905060200201602081019061172691906124a6565b611c39565b63ffffffff1663ffffffff168152602001908152602001600020838383818110611758576117576127c2565b5b905060200201602081019061176d91906124a6565b90806001815401808255809150506001900390600052602060002090600891828204019190066004029091909190916101000a81548163ffffffff021916908363ffffffff1602179055505b806117c39061290b565b9050611635565b505050565b600381565b600a81565b600881565b6117e66121be565b600760008373ffffffffffffffffffffffffffffffffffffffff1673ffffffffffffffffffffffffffffffffffffffff16815260200190815260200160002060098060200260405190810160405280929190826009801561185c576020028201915b815481526020019060010190808311611848575b50505050509050919050565b60066020528060005260406000206000915054906101000a900463ffffffff1681565b600c81565b60056020528060005260406000206000915054906101000a900463ffffffff1681565b600080600061191a600760008673ffffffffffffffffffffffffffffffffffffffff1673ffffffffffffffffffffffffffffffffffffffff168152602001908152602001600020600463ffffffff1660098110611913576119126127c2565b5b0154611bfc565b9350935093505060008363ffffffff161161193457600080fd5b600061193f856120d7565b90506000808263ffffffff161490506000808563ffffffff1614905081806119645750805b15611b705760008490508115611984576002856119819190612b02565b90505b600160009054906101000a900473ffffffffffffffffffffffffffffffffffffffff1673ffffffffffffffffffffffffffffffffffffffff1663f242432a600160009054906101000a900473ffffffffffffffffffffffffffffffffffffffff1633600160009054906101000a900473ffffffffffffffffffffffffffffffffffffffff1673ffffffffffffffffffffffffffffffffffffffff16634dc654116040518163ffffffff1660e01b8152600401602060405180830381865afa158015611a53573d6000803e3d6000fd5b505050506040513d601f19601f82011682018060405250810190611a779190612968565b856040518563ffffffff1660e01b8152600401611a979493929190612b33565b600060405180830381600087803b158015611ab157600080fd5b505af1158015611ac5573d6000803e3d6000fd5b50505050611ad66000808884611cfb565b600760008a73ffffffffffffffffffffffffffffffffffffffff1673ffffffffffffffffffffffffffffffffffffffff168152602001908152602001600020600463ffffffff1660098110611b2e57611b2d6127c2565b5b01819055507ffd72d42666917b25b6c1e14d1040ea69beef47b122a6acb5a810125b62abb236888483604051611b6693929190612b8b565b60405180910390a1505b50505050505050565b611b81611e56565b600073ffffffffffffffffffffffffffffffffffffffff168173ffffffffffffffffffffffffffffffffffffffff1603611bf0576040517f08c379a0000000000000000000000000000000000000000000000000000000008152600401611be790612c34565b60405180910390fd5b611bf981611ed4565b50565b60008060008060008590506000602087901c90506000604088901c90506000606089901c9050808284869750975097509750505050509193509193565b600060108263ffffffff16901c9050919050565b6000808263ffffffff161115611c9b576000611c6f611c6a611f98565b611fc7565b509050611c93600184611c82919061285a565b82611c8c84611fb0565b6000611cfb565b915050611cac565b611ca9600080600080611cfb565b90505b919050565b6000806004600660008563ffffffff1663ffffffff16815260200190815260200160002060009054906101000a900463ffffffff1616905060008163ffffffff1611915050919050565b60008163ffffffff1660208463ffffffff1660208763ffffffff1660208a63ffffffff16901b611d2b9190612c54565b901b611d379190612c54565b901b611d439190612c54565b9050949350505050565b6000806001600660008563ffffffff1663ffffffff16815260200190815260200160002060009054906101000a900463ffffffff1616905060008163ffffffff161115611d9e576001915050611da4565b60009150505b919050565b600080600460008463ffffffff1663ffffffff16815260200190815260200160002060009054906101000a900463ffffffff16905060008163ffffffff1603611df157600c90505b80915050919050565b6000806002600660008563ffffffff1663ffffffff16815260200190815260200160002060009054906101000a900463ffffffff1616905060008163ffffffff161115611e4b576001915050611e51565b60009150505b919050565b611e5e6121b6565b73ffffffffffffffffffffffffffffffffffffffff16611e7c611097565b73ffffffffffffffffffffffffffffffffffffffff1614611ed2576040517f08c379a0000000000000000000000000000000000000000000000000000000008152600401611ec990612cf6565b60405180910390fd5b565b60008060009054906101000a900473ffffffffffffffffffffffffffffffffffffffff169050816000806101000a81548173ffffffffffffffffffffffffffffffffffffffff021916908373ffffffffffffffffffffffffffffffffffffffff1602179055508173ffffffffffffffffffffffffffffffffffffffff168173ffffffffffffffffffffffffffffffffffffffff167f8be0079c531659141344cd1fd0a4f28419497f9722a3daafe3b4186f6b6457e060405160405180910390a35050565b6000600143611fa79190612d16565b4060001c905090565b600060ff60088363ffffffff16901c169050919050565b6000806000600684611fd99190612d4a565b90506000602085901c905060006001905060008363ffffffff1603612001576002905061202d565b60018363ffffffff1603612018576003905061202c565b60028363ffffffff160361202b57600490505b5b5b6000600360008363ffffffff1663ffffffff168152602001908152602001600020805490508761205d9190612d4a565b9050602087901c92506000600360008463ffffffff1663ffffffff1681526020019081526020016000208263ffffffff168154811061209f5761209e6127c2565b5b90600052602060002090600891828204019190066004029054906101000a900463ffffffff1690508084965096505050505050915091565b6000806000905060005b600463ffffffff168163ffffffff1610156121ac57600080612166600760008873ffffffffffffffffffffffffffffffffffffffff1673ffffffffffffffffffffffffffffffffffffffff1681526020019081526020016000208460006121489190612820565b63ffffffff166009811061215f5761215e6127c2565b5b0154611bfc565b50509150915081846121789190612820565b935060008163ffffffff161115612199576001846121969190612820565b93505b5050806121a590612a18565b90506120e1565b5080915050919050565b600033905090565b604051806101200160405280600990602082028036833780820191505090505090565b8260098101928215612210579160200282015b8281111561220f5782518255916020019190600101906121f4565b5b50905061221d9190612221565b5090565b5b8082111561223a576000816000905550600101612222565b5090565b600063ffffffff82169050919050565b6122578161223e565b82525050565b6000602082019050612272600083018461224e565b92915050565b600080fd5b600080fd5b61228b8161223e565b811461229657600080fd5b50565b6000813590506122a881612282565b92915050565b600080604083850312156122c5576122c4612278565b5b60006122d385828601612299565b92505060206122e485828601612299565b9150509250929050565b600073ffffffffffffffffffffffffffffffffffffffff82169050919050565b6000612319826122ee565b9050919050565b6123298161230e565b811461233457600080fd5b50565b60008135905061234681612320565b92915050565b6000819050919050565b61235f8161234c565b811461236a57600080fd5b50565b60008135905061237c81612356565b92915050565b6000806040838503121561239957612398612278565b5b60006123a785828601612337565b92505060206123b88582860161236d565b9150509250929050565b6123cb8161234c565b82525050565b60006020820190506123e660008301846123c2565b92915050565b6000806040838503121561240357612402612278565b5b600061241185828601612299565b92505060206124228582860161236d565b9150509250929050565b6000819050919050565b600061245161244c612447846122ee565b61242c565b6122ee565b9050919050565b600061246382612436565b9050919050565b600061247582612458565b9050919050565b6124858161246a565b82525050565b60006020820190506124a0600083018461247c565b92915050565b6000602082840312156124bc576124bb612278565b5b60006124ca84828501612299565b91505092915050565b60008115159050919050565b6124e8816124d3565b82525050565b600060208201905061250360008301846124df565b92915050565b600080fd5b600080fd5b600080fd5b60008083601f84011261252e5761252d612509565b5b8235905067ffffffffffffffff81111561254b5761254a61250e565b5b60208301915083602082028301111561256757612566612513565b5b9250929050565b6000806000806000806000806080898b03121561258e5761258d612278565b5b600089013567ffffffffffffffff8111156125ac576125ab61227d565b5b6125b88b828c01612518565b9850985050602089013567ffffffffffffffff8111156125db576125da61227d565b5b6125e78b828c01612518565b9650965050604089013567ffffffffffffffff81111561260a5761260961227d565b5b6126168b828c01612518565b9450945050606089013567ffffffffffffffff8111156126395761263861227d565b5b6126458b828c01612518565b92509250509295985092959890939650565b6126608161230e565b82525050565b600060208201905061267b6000830184612657565b92915050565b6000806020838503121561269857612697612278565b5b600083013567ffffffffffffffff8111156126b6576126b561227d565b5b6126c285828601612518565b92509250509250929050565b6000602082840312156126e4576126e3612278565b5b60006126f284828501612337565b91505092915050565b600060099050919050565b600081905092915050565b6000819050919050565b6127248161234c565b82525050565b6000612736838361271b565b60208301905092915050565b6000602082019050919050565b612758816126fb565b6127628184612706565b925061276d82612711565b8060005b8381101561279e578151612785878261272a565b965061279083612742565b925050600181019050612771565b505050505050565b6000610120820190506127bc600083018461274f565b92915050565b7f4e487b7100000000000000000000000000000000000000000000000000000000600052603260045260246000fd5b7f4e487b7100000000000000000000000000000000000000000000000000000000600052601160045260246000fd5b600061282b8261223e565b91506128368361223e565b92508263ffffffff0382111561284f5761284e6127f1565b5b828201905092915050565b60006128658261223e565b91506128708361223e565b925082821015612883576128826127f1565b5b828203905092915050565b600082825260208201905092915050565b7f496e76616c6964206d6f76650000000000000000000000000000000000000000600082015250565b60006128d5600c8361288e565b91506128e08261289f565b602082019050919050565b60006020820190508181036000830152612904816128c8565b9050919050565b60006129168261234c565b91507fffffffffffffffffffffffffffffffffffffffffffffffffffffffffffffffff8203612948576129476127f1565b5b600182019050919050565b60008151905061296281612356565b92915050565b60006020828403121561297e5761297d612278565b5b600061298c84828501612953565b91505092915050565b60006040820190506129aa6000830185612657565b6129b760208301846123c2565b9392505050565b60006129d96129d46129cf8461223e565b61242c565b61234c565b9050919050565b6129e9816129be565b82525050565b6000604082019050612a046000830185612657565b612a1160208301846129e0565b9392505050565b6000612a238261223e565b915063ffffffff8203612a3957612a386127f1565b5b600182019050919050565b600082825260208201905092915050565b50565b6000612a65600083612a44565b9150612a7082612a55565b600082019050919050565b600060a082019050612a906000830187612657565b612a9d6020830186612657565b612aaa60408301856123c2565b612ab760608301846123c2565b8181036080830152612ac881612a58565b905095945050505050565b7f4e487b7100000000000000000000000000000000000000000000000000000000600052601260045260246000fd5b6000612b0d8261223e565b9150612b188361223e565b925082612b2857612b27612ad3565b5b828204905092915050565b600060a082019050612b486000830187612657565b612b556020830186612657565b612b6260408301856123c2565b612b6f60608301846129e0565b8181036080830152612b8081612a58565b905095945050505050565b6000606082019050612ba06000830186612657565b612bad60208301856124df565b612bba60408301846129e0565b949350505050565b7f4f776e61626c653a206e6577206f776e657220697320746865207a65726f206160008201527f6464726573730000000000000000000000000000000000000000000000000000602082015250565b6000612c1e60268361288e565b9150612c2982612bc2565b604082019050919050565b60006020820190508181036000830152612c4d81612c11565b9050919050565b6000612c5f8261234c565b9150612c6a8361234c565b9250827fffffffffffffffffffffffffffffffffffffffffffffffffffffffffffffffff03821115612c9f57612c9e6127f1565b5b828201905092915050565b7f4f776e61626c653a2063616c6c6572206973206e6f7420746865206f776e6572600082015250565b6000612ce060208361288e565b9150612ceb82612caa565b602082019050919050565b60006020820190508181036000830152612d0f81612cd3565b9050919050565b6000612d218261234c565b9150612d2c8361234c565b925082821015612d3f57612d3e6127f1565b5b828203905092915050565b6000612d558261223e565b9150612d608361223e565b925082612d7057612d6f612ad3565b5b82820690509291505056fea2646970667358221220891a8a39bc5b30ead4addf06a2ef7cec1feaaf7b86133bce747e7319f47f149864736f6c634300080e0033",
  "immutableReferences": {},
  "source": "// SPDX-License-Identifier: MIT\npragma solidity ^0.8.0;\n\nimport \"@openzeppelin/contracts/access/Ownable.sol\";\nimport \"@openzeppelin/contracts/token/ERC1155/IERC1155.sol\";\nimport \"./PolyCardTokens.sol\";\n\ncontract PolyCardConfig {\n  uint256 public constant GEMS_PER_GAME = 10;\n  uint32 public constant CARD_PILES = 4;\n  uint32 public constant MIN_CARDS_PER_PILE = 6;\n\n  uint32 public constant HERO_ADVENTURER = 0x0001;\n  uint32 public constant HERO_DEFAULT_HP = 12;\n  uint32 public constant HERO_ABILITY_EXTRA_HP = 0x01;\n  uint32 public constant HERO_ABILITY_EXTRA_GEM = 0x02;\n  uint32 public constant HERO_ABILITY_DUAL_WIELD = 0x04;\n\n  uint32 public constant CARD_FOE = 0x01;\n  uint32 public constant CARD_TREASURE = 0x02;\n  uint32 public constant CARD_FOOD = 0x03;\n  uint32 public constant CARD_WEAPON = 0x04;\n\n  uint32 public constant SLOTS = 9;\n  uint32 public constant SLOT_PILE0 = 0x000;\n  uint32 public constant SLOT_PILE1 = 0x001;\n  uint32 public constant SLOT_PILE2 = 0x002;\n  uint32 public constant SLOT_PILE3 = 0x003;\n  uint32 public constant SLOT_HERO = 0x004;\n  uint32 public constant SLOT_WEAPON0 = 0x005;\n  uint32 public constant SLOT_WEAPON1 = 0x006;\n  uint32 public constant SLOT_ITEM = 0x007;\n  uint32 public constant SLOT_TRASH = 0x008;\n\n  function getCardType(uint32 card) internal pure returns (uint32) {\n    return card >> 16;\n  }\n\n  function getCardValue(uint32 card) internal pure returns (uint32) {\n    return (card >> 8) & 0xFF;\n  }\n}\n\ncontract PolyCardGame is PolyCardConfig, Ownable {\n  PolyCardTokens public tokenContract;\n\n  mapping(uint32 => bool) public cards;\n  mapping(uint32 => uint32[]) public cardsByType;\n\n  mapping(uint32 => uint32) public heroHps;\n  mapping(uint32 => uint32) public heroStartWeapons;\n  mapping(uint32 => uint32) public heroAbilities;\n\n  mapping(address => uint256[SLOTS]) public games;\n\n  event GameStart(address player);\n  event GameEnd(address player, bool win, uint256 gems);\n\n  constructor(PolyCardTokens _tokenContract) {\n    tokenContract = _tokenContract;\n  }\n\n  function start(uint32 hero) public {\n      require(tokenContract.balanceOf(address(msg.sender), tokenContract.GEM()) >= GEMS_PER_GAME);\n      require(hero == HERO_ADVENTURER || tokenContract.balanceOf(address(msg.sender), hero) > 0);\n\n      uint256 rand = _rand();\n\n      uint256[SLOTS] memory game;\n      game[SLOT_HERO] = newSlot(0, hero, getHeroMaxHp(hero), 0);\n      game[SLOT_WEAPON0] = newSlot(0, heroStartWeapons[hero], getCardValue(heroStartWeapons[hero]), 0);\n      for (uint32 i = 0; i < CARD_PILES; ++i) {\n        (uint32 card, uint256 nextRand) = getRandomCard(rand);\n        rand = nextRand;\n        game[SLOT_PILE0 + i] = newSlot(MIN_CARDS_PER_PILE + i, card, getCardValue(card), 0);\n      }\n      games[address(msg.sender)] = game;\n\n      tokenContract.safeTransferFrom(msg.sender, address(tokenContract), tokenContract.GEM(), GEMS_PER_GAME, '');\n\n      emit GameStart(msg.sender);\n  }\n\n  function move(uint32 fromSlot, uint32 toSlot) public {\n    uint256[SLOTS] storage state = games[msg.sender];\n    (, uint32 hero, uint32 hp, uint32 gems) = getSlot(state[SLOT_HERO]);\n    (uint32 srcCards, uint32 srcCard, uint32 srcValue,) = getSlot(state[fromSlot]);\n    (uint32 dstCards, uint32 dstCard, uint32 dstValue,) = getSlot(state[toSlot]);\n    require(hero > 0 && hp > 0 && srcCard > 0);\n\n    uint32 srcCardType = getCardType(srcCard);\n\n    if (toSlot == SLOT_TRASH) {\n      require(srcCardType == CARD_FOOD || srcCardType == CARD_TREASURE || srcCardType == CARD_WEAPON);\n      state[fromSlot] = flipSlot(srcCards);\n      checkEndGame(msg.sender);\n      return;\n    }\n    \n    if (\n      ((toSlot == SLOT_WEAPON0 || (toSlot == SLOT_WEAPON1 && canDualWield(hero))) && srcCardType == CARD_WEAPON) ||\n      (toSlot == SLOT_ITEM && (srcCardType == CARD_FOOD || srcCardType == CARD_TREASURE))\n    ) {\n      require(dstCard == 0);\n      state[toSlot] = newSlot(0, srcCard, srcValue, 0);\n      state[fromSlot] = flipSlot(srcCards);\n      checkEndGame(msg.sender);\n      return;\n    }\n    \n    if (toSlot == SLOT_HERO) {\n      require(srcCardType == CARD_FOOD || srcCardType == CARD_TREASURE || srcCardType == CARD_FOE);\n      uint32 newHp = 0;\n\n      if (srcCardType == CARD_FOOD) {\n        newHp = hp + srcValue + getExtraHp(hero);\n        if (newHp > getHeroMaxHp(hero)) {\n          newHp = getHeroMaxHp(hero);\n        }\n        state[toSlot] = newSlot(0, hero, newHp, gems);\n        state[fromSlot] = flipSlot(srcCards);\n        checkEndGame(msg.sender);\n      } else if (srcCardType == CARD_TREASURE) {\n        state[toSlot] = newSlot(0, hero, hp, gems + srcValue + getExtraGem(hero));\n        state[fromSlot] = flipSlot(srcCards);\n        checkEndGame(msg.sender);\n      } else if (srcCardType == CARD_FOE) {\n        if (hp > srcValue) {\n          newHp = hp - srcValue;\n        }\n        state[toSlot] = newSlot(0, hero, newHp, gems);\n        state[fromSlot] = flipSlot(srcCards);\n        checkEndGame(msg.sender);\n      }\n      return;\n    }\n    \n    if (toSlot >= SLOT_PILE0 && toSlot <= SLOT_PILE3) {\n      require(srcCardType == CARD_WEAPON && dstCard > 0 && getCardType(dstCard) == CARD_FOE);\n      state[fromSlot] = flipSlot(srcCards);\n      if (srcValue >= dstValue) {\n        state[toSlot] = flipSlot(dstCards);\n        checkEndGame(msg.sender);\n      } else {\n        state[toSlot] = newSlot(dstCards, dstCard, dstValue - srcValue, 0);\n      }\n      return;\n    }\n\n    require(false, 'Invalid move');\n  }\n\n  function checkEndGame(address account) public {\n    (, uint32 hero, uint32 hp, uint32 gems) = getSlot(games[account][SLOT_HERO]);\n    require(hero > 0);\n    uint32 remainingCards = countCards(account);\n\n    bool win = remainingCards == 0;\n    bool lose = hp == 0;\n\n    if (win || lose) {\n      uint32 earnedGems = gems;\n      if (lose) {\n        earnedGems = gems / 2;\n      }\n\n      tokenContract.safeTransferFrom(address(tokenContract), msg.sender, tokenContract.GEM(), earnedGems, '');\n\n      games[account][SLOT_HERO] = newSlot(0, 0, hp, earnedGems);\n\n      emit GameEnd(account, win, earnedGems);\n    }\n  }\n\n  function getGameState(address account) public view returns (uint256[SLOTS] memory) {\n    return games[account];\n  }\n\n  function registerCards(uint32[] calldata _cards) external onlyOwner {\n      for (uint256 i = 0; i < _cards.length; ++i) {\n          if (!cards[_cards[i]]) {\n            cards[_cards[i]] = true;\n            cardsByType[getCardType(_cards[i])].push(_cards[i]);\n          }\n      }\n  }\n\n  function registerHeroes(\n    uint32[] calldata heroes,\n    uint32[] calldata hps,\n    uint32[] calldata startWeapons,\n    uint32[] calldata abilities\n  ) external onlyOwner {\n      for (uint256 i = 0; i < heroes.length; ++i) {\n          heroHps[heroes[i]] = hps[i];\n          heroStartWeapons[heroes[i]] = startWeapons[i];\n          heroAbilities[heroes[i]] = abilities[i];\n      }\n  }\n\n  function _rand() internal view returns (uint256) {\n    return uint256(\n      blockhash(block.number - 1)\n    );\n  }\n\n  function getRandomCard(uint256 rand) internal view returns (uint32, uint256) {\n    uint32 rand1 = uint32(rand) % 6;\n    uint256 nextRand = rand >> 32;\n\n    uint32 cardType = CARD_FOE;\n    if (rand1 == 0) {\n      cardType = CARD_TREASURE;\n    } else if (rand1 == 1) {\n      cardType = CARD_FOOD;\n    } else if (rand1 == 2) {\n      cardType = CARD_WEAPON;\n    }\n\n    uint32 rand2 = uint32(rand) % uint32(cardsByType[cardType].length);\n    nextRand = rand >> 32;\n\n    uint32 randCard = cardsByType[cardType][rand2];\n\n    return (randCard, nextRand);\n  }\n\n  function getHeroMaxHp(uint32 hero) internal view returns (uint32) {\n    uint32 hp = heroHps[hero];\n    if (hp == 0) {\n      hp = HERO_DEFAULT_HP;\n    }\n    return hp;\n  }\n\n  function getExtraGem(uint32 hero) internal view returns (uint32) {\n    uint32 hasAbility = heroAbilities[hero] & HERO_ABILITY_EXTRA_GEM;\n    if (hasAbility > 0) {\n      return 1;\n    }\n    return 0;\n  }\n\n  function getExtraHp(uint32 hero) internal view returns (uint32) {\n    uint32 hasAbility = heroAbilities[hero] & HERO_ABILITY_EXTRA_HP;\n    if (hasAbility > 0) {\n      return 1;\n    }\n    return 0;\n  }\n\n  function canDualWield(uint32 hero) internal view returns (bool) {\n    uint32 hasAbility = heroAbilities[hero] & HERO_ABILITY_DUAL_WIELD;\n    return hasAbility > 0;\n  }\n\n  function newSlot(\n    uint32 hiddenCards,\n    uint32 card,\n    uint32 value,\n    uint32 gems\n  ) internal pure returns (uint256) {\n    return (((((uint256(hiddenCards) << 32) + card) << 32) + value) << 32) + gems;\n  }\n\n  function getSlot(uint256 slot) internal pure returns (uint32, uint32, uint32, uint32) {\n    uint32 gems = uint32(slot);\n    uint32 value = uint32(slot >> 32);\n    uint32 card = uint32(slot >> 64);\n    uint32 hiddenCards = uint32(slot >> 96);\n    return (hiddenCards, card, value, gems);\n  }\n\n  function flipSlot(uint32 hiddenCards) internal view returns (uint256) {\n    if (hiddenCards > 0) {\n      (uint32 card,) = getRandomCard(_rand());\n      return newSlot(hiddenCards - 1, card, getCardValue(card), 0);\n    } else {\n      return newSlot(0, 0, 0, 0);\n    }\n  }\n\n  function countCards(address account) internal view returns (uint32) {\n    uint32 total = 0;\n    for (uint32 i = 0; i < CARD_PILES; ++i) {\n      (uint32 count, uint32 topCard,,) = getSlot(games[account][SLOT_PILE0 + i]);\n      total += count;\n      if (topCard > 0) {\n        total += 1;\n      }\n    }\n    return total;\n  }\n}\n",
  "sourcePath": "/Users/kwokwong/Documents/PoCs/polycards/contracts/contracts/PolyCardGame.sol",
  "compiler": {
    "name": "solc",
    "version": "0.8.14+commit.80d49f37.Emscripten.clang"
  },
  "schemaVersion": "3.4.8",
  "updatedAt": "2022-08-22T07:41:05.295Z",
  "networkType": "ethereum",
  "devdoc": {
    "kind": "dev",
    "methods": {
      "owner()": {
        "details": "Returns the address of the current owner."
      },
      "renounceOwnership()": {
        "details": "Leaves the contract without owner. It will not be possible to call `onlyOwner` functions anymore. Can only be called by the current owner. NOTE: Renouncing ownership will leave the contract without an owner, thereby removing any functionality that is only available to the owner."
      },
      "transferOwnership(address)": {
        "details": "Transfers ownership of the contract to a new account (`newOwner`). Can only be called by the current owner."
      }
    },
    "version": 1
  },
  "userdoc": {
    "kind": "user",
    "methods": {},
    "version": 1
  }
}