{
  "contractName": "PolyCardConfig",
  "abi": [
    {
      "inputs": [],
      "name": "CARD_FOE",
      "outputs": [
        {
          "internalType": "uint32",
          "name": "",
          "type": "uint32"
        }
      ],
      "stateMutability": "view",
      "type": "function"
    },
    {
      "inputs": [],
      "name": "CARD_FOOD",
      "outputs": [
        {
          "internalType": "uint32",
          "name": "",
          "type": "uint32"
        }
      ],
      "stateMutability": "view",
      "type": "function"
    },
    {
      "inputs": [],
      "name": "CARD_PILES",
      "outputs": [
        {
          "internalType": "uint32",
          "name": "",
          "type": "uint32"
        }
      ],
      "stateMutability": "view",
      "type": "function"
    },
    {
      "inputs": [],
      "name": "CARD_TREASURE",
      "outputs": [
        {
          "internalType": "uint32",
          "name": "",
          "type": "uint32"
        }
      ],
      "stateMutability": "view",
      "type": "function"
    },
    {
      "inputs": [],
      "name": "CARD_WEAPON",
      "outputs": [
        {
          "internalType": "uint32",
          "name": "",
          "type": "uint32"
        }
      ],
      "stateMutability": "view",
      "type": "function"
    },
    {
      "inputs": [],
      "name": "GEMS_PER_GAME",
      "outputs": [
        {
          "internalType": "uint256",
          "name": "",
          "type": "uint256"
        }
      ],
      "stateMutability": "view",
      "type": "function"
    },
    {
      "inputs": [],
      "name": "HERO_ABILITY_DUAL_WIELD",
      "outputs": [
        {
          "internalType": "uint32",
          "name": "",
          "type": "uint32"
        }
      ],
      "stateMutability": "view",
      "type": "function"
    },
    {
      "inputs": [],
      "name": "HERO_ABILITY_EXTRA_GEM",
      "outputs": [
        {
          "internalType": "uint32",
          "name": "",
          "type": "uint32"
        }
      ],
      "stateMutability": "view",
      "type": "function"
    },
    {
      "inputs": [],
      "name": "HERO_ABILITY_EXTRA_HP",
      "outputs": [
        {
          "internalType": "uint32",
          "name": "",
          "type": "uint32"
        }
      ],
      "stateMutability": "view",
      "type": "function"
    },
    {
      "inputs": [],
      "name": "HERO_ADVENTURER",
      "outputs": [
        {
          "internalType": "uint32",
          "name": "",
          "type": "uint32"
        }
      ],
      "stateMutability": "view",
      "type": "function"
    },
    {
      "inputs": [],
      "name": "HERO_DEFAULT_HP",
      "outputs": [
        {
          "internalType": "uint32",
          "name": "",
          "type": "uint32"
        }
      ],
      "stateMutability": "view",
      "type": "function"
    },
    {
      "inputs": [],
      "name": "MIN_CARDS_PER_PILE",
      "outputs": [
        {
          "internalType": "uint32",
          "name": "",
          "type": "uint32"
        }
      ],
      "stateMutability": "view",
      "type": "function"
    },
    {
      "inputs": [],
      "name": "SLOTS",
      "outputs": [
        {
          "internalType": "uint32",
          "name": "",
          "type": "uint32"
        }
      ],
      "stateMutability": "view",
      "type": "function"
    },
    {
      "inputs": [],
      "name": "SLOT_HERO",
      "outputs": [
        {
          "internalType": "uint32",
          "name": "",
          "type": "uint32"
        }
      ],
      "stateMutability": "view",
      "type": "function"
    },
    {
      "inputs": [],
      "name": "SLOT_ITEM",
      "outputs": [
        {
          "internalType": "uint32",
          "name": "",
          "type": "uint32"
        }
      ],
      "stateMutability": "view",
      "type": "function"
    },
    {
      "inputs": [],
      "name": "SLOT_PILE0",
      "outputs": [
        {
          "internalType": "uint32",
          "name": "",
          "type": "uint32"
        }
      ],
      "stateMutability": "view",
      "type": "function"
    },
    {
      "inputs": [],
      "name": "SLOT_PILE1",
      "outputs": [
        {
          "internalType": "uint32",
          "name": "",
          "type": "uint32"
        }
      ],
      "stateMutability": "view",
      "type": "function"
    },
    {
      "inputs": [],
      "name": "SLOT_PILE2",
      "outputs": [
        {
          "internalType": "uint32",
          "name": "",
          "type": "uint32"
        }
      ],
      "stateMutability": "view",
      "type": "function"
    },
    {
      "inputs": [],
      "name": "SLOT_PILE3",
      "outputs": [
        {
          "internalType": "uint32",
          "name": "",
          "type": "uint32"
        }
      ],
      "stateMutability": "view",
      "type": "function"
    },
    {
      "inputs": [],
      "name": "SLOT_TRASH",
      "outputs": [
        {
          "internalType": "uint32",
          "name": "",
          "type": "uint32"
        }
      ],
      "stateMutability": "view",
      "type": "function"
    },
    {
      "inputs": [],
      "name": "SLOT_WEAPON0",
      "outputs": [
        {
          "internalType": "uint32",
          "name": "",
          "type": "uint32"
        }
      ],
      "stateMutability": "view",
      "type": "function"
    },
    {
      "inputs": [],
      "name": "SLOT_WEAPON1",
      "outputs": [
        {
          "internalType": "uint32",
          "name": "",
          "type": "uint32"
        }
      ],
      "stateMutability": "view",
      "type": "function"
    }
  ],
  "bytecode": "0x608060405234801561001057600080fd5b506104ed806100206000396000f3fe608060405234801561001057600080fd5b50600436106101425760003560e01c806355cdae23116100b85780639696ef661161007c5780639696ef6614610327578063aed5f40d14610345578063c2897ddf14610363578063c37bd5b014610381578063d8a1bb8d1461039f578063dd7e7608146103bd57610142565b806355cdae231461029157806377c4fbe8146102af578063803cf89d146102cd578063809282dc146102eb5780638823ef7c1461030957610142565b806333bbfbf11161010a57806333bbfbf1146101dd57806335bfc296146101fb5780633631b01c1461021957806338c66586146102375780634b48eb91146102555780634c75f9d01461027357610142565b80630c9411a4146101475780630f5c5b06146101655780630fd3d345146101835780632502d2f1146101a1578063260037c5146101bf575b600080fd5b61014f6103db565b60405161015c9190610468565b60405180910390f35b61016d6103e0565b60405161017a9190610468565b60405180910390f35b61018b6103e5565b6040516101989190610468565b60405180910390f35b6101a96103ea565b6040516101b69190610468565b60405180910390f35b6101c76103ef565b6040516101d49190610468565b60405180910390f35b6101e56103f4565b6040516101f29190610468565b60405180910390f35b6102036103f9565b6040516102109190610468565b60405180910390f35b6102216103fe565b60405161022e9190610468565b60405180910390f35b61023f610403565b60405161024c9190610468565b60405180910390f35b61025d610408565b60405161026a9190610468565b60405180910390f35b61027b61040d565b6040516102889190610468565b60405180910390f35b610299610412565b6040516102a69190610468565b60405180910390f35b6102b7610417565b6040516102c49190610468565b60405180910390f35b6102d561041c565b6040516102e29190610468565b60405180910390f35b6102f3610421565b6040516103009190610468565b60405180910390f35b610311610426565b60405161031e9190610468565b60405180910390f35b61032f61042b565b60405161033c9190610468565b60405180910390f35b61034d610430565b60405161035a9190610468565b60405180910390f35b61036b610435565b6040516103789190610468565b60405180910390f35b61038961043a565b604051610396919061049c565b60405180910390f35b6103a761043f565b6040516103b49190610468565b60405180910390f35b6103c5610444565b6040516103d29190610468565b60405180910390f35b600381565b600481565b600181565b600181565b600481565b600481565b600581565b600181565b600281565b600081565b600281565b600681565b600481565b600281565b600781565b600181565b600981565b600681565b600381565b600a81565b600881565b600c81565b600063ffffffff82169050919050565b61046281610449565b82525050565b600060208201905061047d6000830184610459565b92915050565b6000819050919050565b61049681610483565b82525050565b60006020820190506104b1600083018461048d565b9291505056fea264697066735822122037f74502c13867aef351835bd53757c91970754a12baa022fe51579e54eee7b064736f6c634300080e0033",
  "immutableReferences": {},
  "source": "// SPDX-License-Identifier: MIT\npragma solidity ^0.8.0;\n\nimport \"@openzeppelin/contracts/access/Ownable.sol\";\nimport \"@openzeppelin/contracts/token/ERC1155/IERC1155.sol\";\nimport \"./PolyCardTokens.sol\";\n\ncontract PolyCardConfig {\n  uint256 public constant GEMS_PER_GAME = 10;\n  uint32 public constant CARD_PILES = 4;\n  uint32 public constant MIN_CARDS_PER_PILE = 6;\n\n  uint32 public constant HERO_ADVENTURER = 0x0001;\n  uint32 public constant HERO_DEFAULT_HP = 12;\n  uint32 public constant HERO_ABILITY_EXTRA_HP = 0x01;\n  uint32 public constant HERO_ABILITY_EXTRA_GEM = 0x02;\n  uint32 public constant HERO_ABILITY_DUAL_WIELD = 0x04;\n\n  uint32 public constant CARD_FOE = 0x01;\n  uint32 public constant CARD_TREASURE = 0x02;\n  uint32 public constant CARD_FOOD = 0x03;\n  uint32 public constant CARD_WEAPON = 0x04;\n\n  uint32 public constant SLOTS = 9;\n  uint32 public constant SLOT_PILE0 = 0x000;\n  uint32 public constant SLOT_PILE1 = 0x001;\n  uint32 public constant SLOT_PILE2 = 0x002;\n  uint32 public constant SLOT_PILE3 = 0x003;\n  uint32 public constant SLOT_HERO = 0x004;\n  uint32 public constant SLOT_WEAPON0 = 0x005;\n  uint32 public constant SLOT_WEAPON1 = 0x006;\n  uint32 public constant SLOT_ITEM = 0x007;\n  uint32 public constant SLOT_TRASH = 0x008;\n\n  function getCardType(uint32 card) internal pure returns (uint32) {\n    return card >> 16;\n  }\n\n  function getCardValue(uint32 card) internal pure returns (uint32) {\n    return (card >> 8) & 0xFF;\n  }\n}\n\ncontract PolyCardGame is PolyCardConfig, Ownable {\n  PolyCardTokens public tokenContract;\n\n  mapping(uint32 => bool) public cards;\n  mapping(uint32 => uint32[]) public cardsByType;\n\n  mapping(uint32 => uint32) public heroHps;\n  mapping(uint32 => uint32) public heroStartWeapons;\n  mapping(uint32 => uint32) public heroAbilities;\n\n  mapping(address => uint256[SLOTS]) public games;\n\n  event GameStart(address player);\n  event GameEnd(address player, bool win, uint256 gems);\n\n  constructor(PolyCardTokens _tokenContract) {\n    tokenContract = _tokenContract;\n  }\n\n  function start(uint32 hero) public {\n      require(tokenContract.balanceOf(address(msg.sender), tokenContract.GEM()) >= GEMS_PER_GAME);\n      require(hero == HERO_ADVENTURER || tokenContract.balanceOf(address(msg.sender), hero) > 0);\n\n      uint256 rand = _rand();\n\n      uint256[SLOTS] memory game;\n      game[SLOT_HERO] = newSlot(0, hero, getHeroMaxHp(hero), 0);\n      game[SLOT_WEAPON0] = newSlot(0, heroStartWeapons[hero], getCardValue(heroStartWeapons[hero]), 0);\n      for (uint32 i = 0; i < CARD_PILES; ++i) {\n        (uint32 card, uint256 nextRand) = getRandomCard(rand);\n        rand = nextRand;\n        game[SLOT_PILE0 + i] = newSlot(MIN_CARDS_PER_PILE + i, card, getCardValue(card), 0);\n      }\n      games[address(msg.sender)] = game;\n\n      tokenContract.safeTransferFrom(msg.sender, address(tokenContract), tokenContract.GEM(), GEMS_PER_GAME, '');\n\n      emit GameStart(msg.sender);\n  }\n\n  function move(uint32 fromSlot, uint32 toSlot) public {\n    uint256[SLOTS] storage state = games[msg.sender];\n    (, uint32 hero, uint32 hp, uint32 gems) = getSlot(state[SLOT_HERO]);\n    (uint32 srcCards, uint32 srcCard, uint32 srcValue,) = getSlot(state[fromSlot]);\n    (uint32 dstCards, uint32 dstCard, uint32 dstValue,) = getSlot(state[toSlot]);\n    require(hero > 0 && hp > 0 && srcCard > 0);\n\n    uint32 srcCardType = getCardType(srcCard);\n\n    if (toSlot == SLOT_TRASH) {\n      require(srcCardType == CARD_FOOD || srcCardType == CARD_TREASURE || srcCardType == CARD_WEAPON);\n      state[fromSlot] = flipSlot(srcCards);\n      checkEndGame(msg.sender);\n      return;\n    }\n    \n    if (\n      ((toSlot == SLOT_WEAPON0 || (toSlot == SLOT_WEAPON1 && canDualWield(hero))) && srcCardType == CARD_WEAPON) ||\n      (toSlot == SLOT_ITEM && (srcCardType == CARD_FOOD || srcCardType == CARD_TREASURE))\n    ) {\n      require(dstCard == 0);\n      state[toSlot] = newSlot(0, srcCard, srcValue, 0);\n      state[fromSlot] = flipSlot(srcCards);\n      checkEndGame(msg.sender);\n      return;\n    }\n    \n    if (toSlot == SLOT_HERO) {\n      require(srcCardType == CARD_FOOD || srcCardType == CARD_TREASURE || srcCardType == CARD_FOE);\n      uint32 newHp = 0;\n\n      if (srcCardType == CARD_FOOD) {\n        newHp = hp + srcValue + getExtraHp(hero);\n        if (newHp > getHeroMaxHp(hero)) {\n          newHp = getHeroMaxHp(hero);\n        }\n        state[toSlot] = newSlot(0, hero, newHp, gems);\n        state[fromSlot] = flipSlot(srcCards);\n        checkEndGame(msg.sender);\n      } else if (srcCardType == CARD_TREASURE) {\n        state[toSlot] = newSlot(0, hero, hp, gems + srcValue + getExtraGem(hero));\n        state[fromSlot] = flipSlot(srcCards);\n        checkEndGame(msg.sender);\n      } else if (srcCardType == CARD_FOE) {\n        if (hp > srcValue) {\n          newHp = hp - srcValue;\n        }\n        state[toSlot] = newSlot(0, hero, newHp, gems);\n        state[fromSlot] = flipSlot(srcCards);\n        checkEndGame(msg.sender);\n      }\n      return;\n    }\n    \n    if (toSlot >= SLOT_PILE0 && toSlot <= SLOT_PILE3) {\n      require(srcCardType == CARD_WEAPON && dstCard > 0 && getCardType(dstCard) == CARD_FOE);\n      state[fromSlot] = flipSlot(srcCards);\n      if (srcValue >= dstValue) {\n        state[toSlot] = flipSlot(dstCards);\n        checkEndGame(msg.sender);\n      } else {\n        state[toSlot] = newSlot(dstCards, dstCard, dstValue - srcValue, 0);\n      }\n      return;\n    }\n\n    require(false, 'Invalid move');\n  }\n\n  function checkEndGame(address account) public {\n    (, uint32 hero, uint32 hp, uint32 gems) = getSlot(games[account][SLOT_HERO]);\n    require(hero > 0);\n    uint32 remainingCards = countCards(account);\n\n    bool win = remainingCards == 0;\n    bool lose = hp == 0;\n\n    if (win || lose) {\n      uint32 earnedGems = gems;\n      if (lose) {\n        earnedGems = gems / 2;\n      }\n\n      tokenContract.safeTransferFrom(address(tokenContract), msg.sender, tokenContract.GEM(), earnedGems, '');\n\n      games[account][SLOT_HERO] = newSlot(0, 0, hp, earnedGems);\n\n      emit GameEnd(account, win, earnedGems);\n    }\n  }\n\n  function getGameState(address account) public view returns (uint256[SLOTS] memory) {\n    return games[account];\n  }\n\n  function registerCards(uint32[] calldata _cards) external onlyOwner {\n      for (uint256 i = 0; i < _cards.length; ++i) {\n          if (!cards[_cards[i]]) {\n            cards[_cards[i]] = true;\n            cardsByType[getCardType(_cards[i])].push(_cards[i]);\n          }\n      }\n  }\n\n  function registerHeroes(\n    uint32[] calldata heroes,\n    uint32[] calldata hps,\n    uint32[] calldata startWeapons,\n    uint32[] calldata abilities\n  ) external onlyOwner {\n      for (uint256 i = 0; i < heroes.length; ++i) {\n          heroHps[heroes[i]] = hps[i];\n          heroStartWeapons[heroes[i]] = startWeapons[i];\n          heroAbilities[heroes[i]] = abilities[i];\n      }\n  }\n\n  function _rand() internal view returns (uint256) {\n    return uint256(\n      blockhash(block.number - 1)\n    );\n  }\n\n  function getRandomCard(uint256 rand) internal view returns (uint32, uint256) {\n    uint32 rand1 = uint32(rand) % 6;\n    uint256 nextRand = rand >> 32;\n\n    uint32 cardType = CARD_FOE;\n    if (rand1 == 0) {\n      cardType = CARD_TREASURE;\n    } else if (rand1 == 1) {\n      cardType = CARD_FOOD;\n    } else if (rand1 == 2) {\n      cardType = CARD_WEAPON;\n    }\n\n    uint32 rand2 = uint32(rand) % uint32(cardsByType[cardType].length);\n    nextRand = rand >> 32;\n\n    uint32 randCard = cardsByType[cardType][rand2];\n\n    return (randCard, nextRand);\n  }\n\n  function getHeroMaxHp(uint32 hero) internal view returns (uint32) {\n    uint32 hp = heroHps[hero];\n    if (hp == 0) {\n      hp = HERO_DEFAULT_HP;\n    }\n    return hp;\n  }\n\n  function getExtraGem(uint32 hero) internal view returns (uint32) {\n    uint32 hasAbility = heroAbilities[hero] & HERO_ABILITY_EXTRA_GEM;\n    if (hasAbility > 0) {\n      return 1;\n    }\n    return 0;\n  }\n\n  function getExtraHp(uint32 hero) internal view returns (uint32) {\n    uint32 hasAbility = heroAbilities[hero] & HERO_ABILITY_EXTRA_HP;\n    if (hasAbility > 0) {\n      return 1;\n    }\n    return 0;\n  }\n\n  function canDualWield(uint32 hero) internal view returns (bool) {\n    uint32 hasAbility = heroAbilities[hero] & HERO_ABILITY_DUAL_WIELD;\n    return hasAbility > 0;\n  }\n\n  function newSlot(\n    uint32 hiddenCards,\n    uint32 card,\n    uint32 value,\n    uint32 gems\n  ) internal pure returns (uint256) {\n    return (((((uint256(hiddenCards) << 32) + card) << 32) + value) << 32) + gems;\n  }\n\n  function getSlot(uint256 slot) internal pure returns (uint32, uint32, uint32, uint32) {\n    uint32 gems = uint32(slot);\n    uint32 value = uint32(slot >> 32);\n    uint32 card = uint32(slot >> 64);\n    uint32 hiddenCards = uint32(slot >> 96);\n    return (hiddenCards, card, value, gems);\n  }\n\n  function flipSlot(uint32 hiddenCards) internal view returns (uint256) {\n    if (hiddenCards > 0) {\n      (uint32 card,) = getRandomCard(_rand());\n      return newSlot(hiddenCards - 1, card, getCardValue(card), 0);\n    } else {\n      return newSlot(0, 0, 0, 0);\n    }\n  }\n\n  function countCards(address account) internal view returns (uint32) {\n    uint32 total = 0;\n    for (uint32 i = 0; i < CARD_PILES; ++i) {\n      (uint32 count, uint32 topCard,,) = getSlot(games[account][SLOT_PILE0 + i]);\n      total += count;\n      if (topCard > 0) {\n        total += 1;\n      }\n    }\n    return total;\n  }\n}\n",
  "sourcePath": "/Users/kwokwong/Documents/PoCs/polycards/contracts/contracts/PolyCardGame.sol",
  "compiler": {
    "name": "solc",
    "version": "0.8.14+commit.80d49f37.Emscripten.clang"
  },
  "schemaVersion": "3.4.8",
  "updatedAt": "2022-08-22T07:11:58.609Z",
  "devdoc": {
    "kind": "dev",
    "methods": {},
    "version": 1
  },
  "userdoc": {
    "kind": "user",
    "methods": {},
    "version": 1
  }
}